{"abi":[{"type":"constructor","inputs":[{"name":"entranceFee","type":"uint256","internalType":"uint256"},{"name":"interval","type":"uint256","internalType":"uint256"},{"name":"vrfCoordinator","type":"address","internalType":"address"},{"name":"gaslane","type":"bytes32","internalType":"bytes32"},{"name":"subscriptionId","type":"uint256","internalType":"uint256"},{"name":"callbackGasLimit","type":"uint32","internalType":"uint32"}],"stateMutability":"nonpayable"},{"type":"function","name":"acceptOwnership","inputs":[],"outputs":[],"stateMutability":"nonpayable"},{"type":"function","name":"checkUpkeep","inputs":[{"name":"","type":"bytes","internalType":"bytes"}],"outputs":[{"name":"upkeepNeeded","type":"bool","internalType":"bool"},{"name":"","type":"bytes","internalType":"bytes"}],"stateMutability":"view"},{"type":"function","name":"enterRaffle","inputs":[],"outputs":[],"stateMutability":"payable"},{"type":"function","name":"getEntranceFee","inputs":[],"outputs":[{"name":"","type":"uint256","internalType":"uint256"}],"stateMutability":"view"},{"type":"function","name":"owner","inputs":[],"outputs":[{"name":"","type":"address","internalType":"address"}],"stateMutability":"view"},{"type":"function","name":"performUpkeep","inputs":[{"name":"","type":"bytes","internalType":"bytes"}],"outputs":[],"stateMutability":"nonpayable"},{"type":"function","name":"rawFulfillRandomWords","inputs":[{"name":"requestId","type":"uint256","internalType":"uint256"},{"name":"randomWords","type":"uint256[]","internalType":"uint256[]"}],"outputs":[],"stateMutability":"nonpayable"},{"type":"function","name":"s_vrfCoordinator","inputs":[],"outputs":[{"name":"","type":"address","internalType":"contract IVRFCoordinatorV2Plus"}],"stateMutability":"view"},{"type":"function","name":"setCoordinator","inputs":[{"name":"_vrfCoordinator","type":"address","internalType":"address"}],"outputs":[],"stateMutability":"nonpayable"},{"type":"function","name":"transferOwnership","inputs":[{"name":"to","type":"address","internalType":"address"}],"outputs":[],"stateMutability":"nonpayable"},{"type":"event","name":"CoordinatorSet","inputs":[{"name":"vrfCoordinator","type":"address","indexed":false,"internalType":"address"}],"anonymous":false},{"type":"event","name":"OwnershipTransferRequested","inputs":[{"name":"from","type":"address","indexed":true,"internalType":"address"},{"name":"to","type":"address","indexed":true,"internalType":"address"}],"anonymous":false},{"type":"event","name":"OwnershipTransferred","inputs":[{"name":"from","type":"address","indexed":true,"internalType":"address"},{"name":"to","type":"address","indexed":true,"internalType":"address"}],"anonymous":false},{"type":"event","name":"RaffleEnter","inputs":[{"name":"player","type":"address","indexed":true,"internalType":"address"}],"anonymous":false},{"type":"event","name":"WinnerPicked","inputs":[{"name":"winner","type":"address","indexed":true,"internalType":"address"}],"anonymous":false},{"type":"error","name":"OnlyCoordinatorCanFulfill","inputs":[{"name":"have","type":"address","internalType":"address"},{"name":"want","type":"address","internalType":"address"}]},{"type":"error","name":"OnlyOwnerOrCoordinator","inputs":[{"name":"have","type":"address","internalType":"address"},{"name":"owner","type":"address","internalType":"address"},{"name":"coordinator","type":"address","internalType":"address"}]},{"type":"error","name":"Raffle__RaffleNotOpen","inputs":[]},{"type":"error","name":"Raffle__SendMoreToEnterRaffle","inputs":[]},{"type":"error","name":"Raffle__TransferFailed","inputs":[]},{"type":"error","name":"Raffle__UpkeepNotNeeded","inputs":[{"name":"balance","type":"uint256","internalType":"uint256"},{"name":"playersLength","type":"uint256","internalType":"uint256"},{"name":"raffleState","type":"uint256","internalType":"uint256"}]},{"type":"error","name":"ZeroAddress","inputs":[]}],"bytecode":{"object":"0x610120604052348015610010575f80fd5b506040516120be3803806120be83398181016040528101906100329190610467565b8333805f8073ffffffffffffffffffffffffffffffffffffffff168273ffffffffffffffffffffffffffffffffffffffff16036100a4576040517f08c379a000000000000000000000000000000000000000000000000000000000815260040161009b9061054a565b60405180910390fd5b815f806101000a81548173ffffffffffffffffffffffffffffffffffffffff021916908373ffffffffffffffffffffffffffffffffffffffff1602179055505f73ffffffffffffffffffffffffffffffffffffffff168173ffffffffffffffffffffffffffffffffffffffff1614610126576101258161024060201b60201c565b5b5050505f73ffffffffffffffffffffffffffffffffffffffff168173ffffffffffffffffffffffffffffffffffffffff160361018e576040517fd92e233d00000000000000000000000000000000000000000000000000000000815260040160405180910390fd5b8060025f6101000a81548173ffffffffffffffffffffffffffffffffffffffff021916908373ffffffffffffffffffffffffffffffffffffffff1602179055505085608081815250508460a081815250508260c081815250508160e081815250508063ffffffff166101008163ffffffff1681525050426004819055505f600560146101000a81548160ff021916908360018111156102305761022f610568565b5b02179055505050505050506105fd565b3373ffffffffffffffffffffffffffffffffffffffff168173ffffffffffffffffffffffffffffffffffffffff16036102ae576040517f08c379a00000000000000000000000000000000000000000000000000000000081526004016102a5906105df565b60405180910390fd5b8060015f6101000a81548173ffffffffffffffffffffffffffffffffffffffff021916908373ffffffffffffffffffffffffffffffffffffffff1602179055508073ffffffffffffffffffffffffffffffffffffffff165f8054906101000a900473ffffffffffffffffffffffffffffffffffffffff1673ffffffffffffffffffffffffffffffffffffffff167fed8889f560326eb138920d842192f0eb3dd22b4f139c87a2c57538e05bae127860405160405180910390a350565b5f80fd5b5f819050919050565b6103808161036e565b811461038a575f80fd5b50565b5f8151905061039b81610377565b92915050565b5f73ffffffffffffffffffffffffffffffffffffffff82169050919050565b5f6103ca826103a1565b9050919050565b6103da816103c0565b81146103e4575f80fd5b50565b5f815190506103f5816103d1565b92915050565b5f819050919050565b61040d816103fb565b8114610417575f80fd5b50565b5f8151905061042881610404565b92915050565b5f63ffffffff82169050919050565b6104468161042e565b8114610450575f80fd5b50565b5f815190506104618161043d565b92915050565b5f805f805f8060c087890312156104815761048061036a565b5b5f61048e89828a0161038d565b965050602061049f89828a0161038d565b95505060406104b089828a016103e7565b94505060606104c189828a0161041a565b93505060806104d289828a0161038d565b92505060a06104e389828a01610453565b9150509295509295509295565b5f82825260208201905092915050565b7f43616e6e6f7420736574206f776e657220746f207a65726f00000000000000005f82015250565b5f6105346018836104f0565b915061053f82610500565b602082019050919050565b5f6020820190508181035f83015261056181610528565b9050919050565b7f4e487b71000000000000000000000000000000000000000000000000000000005f52602160045260245ffd5b7f43616e6e6f74207472616e7366657220746f2073656c660000000000000000005f82015250565b5f6105c96017836104f0565b91506105d482610595565b602082019050919050565b5f6020820190508181035f8301526105f6816105bd565b9050919050565b60805160a05160c05160e05161010051611a7d6106415f395f61057c01525f61054b01525f61052501525f61067801525f818161021201526102fc0152611a7d5ff3fe608060405260043610610090575f3560e01c806379ba50971161005857806379ba5097146101555780638da5cb5b1461016b5780638ea98117146101955780639eccacf6146101bd578063f2fde38b146101e757610090565b806309bc33a7146100945780631fe543e3146100be5780632cfcc539146100e65780634585e33b146100f05780636e04ff0d14610118575b5f80fd5b34801561009f575f80fd5b506100a861020f565b6040516100b5919061104c565b60405180910390f35b3480156100c9575f80fd5b506100e460048036038101906100df9190611101565b610236565b005b6100ee6102fa565b005b3480156100fb575f80fd5b50610116600480360381019061011191906111b3565b610465565b005b348015610123575f80fd5b5061013e60048036038101906101399190611336565b610672565b60405161014c9291906113f7565b60405180910390f35b348015610160575f80fd5b5061016961072e565b005b348015610176575f80fd5b5061017f6108bd565b60405161018c9190611464565b60405180910390f35b3480156101a0575f80fd5b506101bb60048036038101906101b691906114a7565b6108e4565b005b3480156101c8575f80fd5b506101d1610ac1565b6040516101de919061152d565b60405180910390f35b3480156101f2575f80fd5b5061020d600480360381019061020891906114a7565b610ae6565b005b5f7f0000000000000000000000000000000000000000000000000000000000000000905090565b60025f9054906101000a900473ffffffffffffffffffffffffffffffffffffffff1673ffffffffffffffffffffffffffffffffffffffff163373ffffffffffffffffffffffffffffffffffffffff16146102ea573360025f9054906101000a900473ffffffffffffffffffffffffffffffffffffffff166040517f1cf993f40000000000000000000000000000000000000000000000000000000081526004016102e1929190611546565b60405180910390fd5b6102f5838383610afa565b505050565b7f0000000000000000000000000000000000000000000000000000000000000000341015610354576040517f3038c00a00000000000000000000000000000000000000000000000000000000815260040160405180910390fd5b5f60018111156103675761036661156d565b5b600560149054906101000a900460ff1660018111156103895761038861156d565b5b146103c0576040517fd24a271400000000000000000000000000000000000000000000000000000000815260040160405180910390fd5b600333908060018154018082558091505060019003905f5260205f20015f9091909190916101000a81548173ffffffffffffffffffffffffffffffffffffffff021916908373ffffffffffffffffffffffffffffffffffffffff1602179055503373ffffffffffffffffffffffffffffffffffffffff167f0805e1d667bddb8a95f0f09880cf94f403fb596ce79928d9f29b74203ba284d460405160405180910390a2565b5f61047d60405180602001604052805f815250610672565b509050806104ec5747600380549050600560149054906101000a900460ff1660018111156104ae576104ad61156d565b5b6040517f584327aa0000000000000000000000000000000000000000000000000000000081526004016104e39392919061159a565b60405180910390fd5b6001600560146101000a81548160ff021916908360018111156105125761051161156d565b5b02179055505f6040518060c001604052807f000000000000000000000000000000000000000000000000000000000000000081526020017f00000000000000000000000000000000000000000000000000000000000000008152602001600361ffff1681526020017f000000000000000000000000000000000000000000000000000000000000000063ffffffff168152602001600163ffffffff1681526020016105cc60405180602001604052805f1515815250610d41565b815250905060025f9054906101000a900473ffffffffffffffffffffffffffffffffffffffff1673ffffffffffffffffffffffffffffffffffffffff16639b1c385e826040518263ffffffff1660e01b815260040161062b91906116fe565b6020604051808303815f875af1158015610647573d5f803e3d5ffd5b505050506040513d601f19601f8201168201806040525081019061066b9190611732565b5050505050565b5f60605f7f0000000000000000000000000000000000000000000000000000000000000000600454426106a5919061178a565b101590505f8060018111156106bd576106bc61156d565b5b600560149054906101000a900460ff1660018111156106df576106de61156d565b5b1490505f80471190505f806003805490501190508380156106fd5750825b80156107065750815b801561070f5750805b95508560405180602001604052805f8152509550955050505050915091565b60015f9054906101000a900473ffffffffffffffffffffffffffffffffffffffff1673ffffffffffffffffffffffffffffffffffffffff163373ffffffffffffffffffffffffffffffffffffffff16146107bd576040517f08c379a00000000000000000000000000000000000000000000000000000000081526004016107b490611817565b60405180910390fd5b5f805f9054906101000a900473ffffffffffffffffffffffffffffffffffffffff169050335f806101000a81548173ffffffffffffffffffffffffffffffffffffffff021916908373ffffffffffffffffffffffffffffffffffffffff1602179055505f60015f6101000a81548173ffffffffffffffffffffffffffffffffffffffff021916908373ffffffffffffffffffffffffffffffffffffffff1602179055503373ffffffffffffffffffffffffffffffffffffffff168173ffffffffffffffffffffffffffffffffffffffff167f8be0079c531659141344cd1fd0a4f28419497f9722a3daafe3b4186f6b6457e060405160405180910390a350565b5f805f9054906101000a900473ffffffffffffffffffffffffffffffffffffffff16905090565b6108ec6108bd565b73ffffffffffffffffffffffffffffffffffffffff163373ffffffffffffffffffffffffffffffffffffffff1614158015610974575060025f9054906101000a900473ffffffffffffffffffffffffffffffffffffffff1673ffffffffffffffffffffffffffffffffffffffff163373ffffffffffffffffffffffffffffffffffffffff1614155b156109e257336109826108bd565b60025f9054906101000a900473ffffffffffffffffffffffffffffffffffffffff166040517f061db9c10000000000000000000000000000000000000000000000000000000081526004016109d993929190611835565b60405180910390fd5b5f73ffffffffffffffffffffffffffffffffffffffff168173ffffffffffffffffffffffffffffffffffffffff1603610a47576040517fd92e233d00000000000000000000000000000000000000000000000000000000815260040160405180910390fd5b8060025f6101000a81548173ffffffffffffffffffffffffffffffffffffffff021916908373ffffffffffffffffffffffffffffffffffffffff1602179055507fd1a6a14209a385a964d036e404cb5cfb71f4000cdb03c9366292430787261be681604051610ab69190611464565b60405180910390a150565b60025f9054906101000a900473ffffffffffffffffffffffffffffffffffffffff1681565b610aee610dd9565b610af781610e68565b50565b5f60038054905083835f818110610b1457610b1361186a565b5b90506020020135610b2591906118c4565b90505f60038281548110610b3c57610b3b61186a565b5b905f5260205f20015f9054906101000a900473ffffffffffffffffffffffffffffffffffffffff1690508060055f6101000a81548173ffffffffffffffffffffffffffffffffffffffff021916908373ffffffffffffffffffffffffffffffffffffffff1602179055505f600560146101000a81548160ff02191690836001811115610bcb57610bca61156d565b5b02179055505f67ffffffffffffffff811115610bea57610be9611212565b5b604051908082528060200260200182016040528015610c185781602001602082028036833780820191505090505b5060039080519060200190610c2e929190610f92565b504260048190555060055f9054906101000a900473ffffffffffffffffffffffffffffffffffffffff1673ffffffffffffffffffffffffffffffffffffffff167f5b690ec4a06fe979403046eaeea5b3ce38524683c3001f662c8b5a829632f7df60405160405180910390a25f8173ffffffffffffffffffffffffffffffffffffffff1647604051610cbf90611921565b5f6040518083038185875af1925050503d805f8114610cf9576040519150601f19603f3d011682016040523d82523d5f602084013e610cfe565b606091505b5050905080610d39576040517fa1d04b3900000000000000000000000000000000000000000000000000000000815260040160405180910390fd5b505050505050565b60607f92fd13387c7fe7befbc38d303d6468778fb9731bc4583f17d92989c6fcfdeaaa82604051602401610d75919061195e565b604051602081830303815290604052907bffffffffffffffffffffffffffffffffffffffffffffffffffffffff19166020820180517bffffffffffffffffffffffffffffffffffffffffffffffffffffffff83818316178352505050509050919050565b5f8054906101000a900473ffffffffffffffffffffffffffffffffffffffff1673ffffffffffffffffffffffffffffffffffffffff163373ffffffffffffffffffffffffffffffffffffffff1614610e66576040517f08c379a0000000000000000000000000000000000000000000000000000000008152600401610e5d906119c1565b60405180910390fd5b565b3373ffffffffffffffffffffffffffffffffffffffff168173ffffffffffffffffffffffffffffffffffffffff1603610ed6576040517f08c379a0000000000000000000000000000000000000000000000000000000008152600401610ecd90611a29565b60405180910390fd5b8060015f6101000a81548173ffffffffffffffffffffffffffffffffffffffff021916908373ffffffffffffffffffffffffffffffffffffffff1602179055508073ffffffffffffffffffffffffffffffffffffffff165f8054906101000a900473ffffffffffffffffffffffffffffffffffffffff1673ffffffffffffffffffffffffffffffffffffffff167fed8889f560326eb138920d842192f0eb3dd22b4f139c87a2c57538e05bae127860405160405180910390a350565b828054828255905f5260205f20908101928215611008579160200282015b82811115611007578251825f6101000a81548173ffffffffffffffffffffffffffffffffffffffff021916908373ffffffffffffffffffffffffffffffffffffffff16021790555091602001919060010190610fb0565b5b5090506110159190611019565b5090565b5b80821115611030575f815f90555060010161101a565b5090565b5f819050919050565b61104681611034565b82525050565b5f60208201905061105f5f83018461103d565b92915050565b5f604051905090565b5f80fd5b5f80fd5b61107f81611034565b8114611089575f80fd5b50565b5f8135905061109a81611076565b92915050565b5f80fd5b5f80fd5b5f80fd5b5f8083601f8401126110c1576110c06110a0565b5b8235905067ffffffffffffffff8111156110de576110dd6110a4565b5b6020830191508360208202830111156110fa576110f96110a8565b5b9250929050565b5f805f604084860312156111185761111761106e565b5b5f6111258682870161108c565b935050602084013567ffffffffffffffff81111561114657611145611072565b5b611152868287016110ac565b92509250509250925092565b5f8083601f840112611173576111726110a0565b5b8235905067ffffffffffffffff8111156111905761118f6110a4565b5b6020830191508360018202830111156111ac576111ab6110a8565b5b9250929050565b5f80602083850312156111c9576111c861106e565b5b5f83013567ffffffffffffffff8111156111e6576111e5611072565b5b6111f28582860161115e565b92509250509250929050565b5f80fd5b5f601f19601f8301169050919050565b7f4e487b71000000000000000000000000000000000000000000000000000000005f52604160045260245ffd5b61124882611202565b810181811067ffffffffffffffff8211171561126757611266611212565b5b80604052505050565b5f611279611065565b9050611285828261123f565b919050565b5f67ffffffffffffffff8211156112a4576112a3611212565b5b6112ad82611202565b9050602081019050919050565b828183375f83830152505050565b5f6112da6112d58461128a565b611270565b9050828152602081018484840111156112f6576112f56111fe565b5b6113018482856112ba565b509392505050565b5f82601f83011261131d5761131c6110a0565b5b813561132d8482602086016112c8565b91505092915050565b5f6020828403121561134b5761134a61106e565b5b5f82013567ffffffffffffffff81111561136857611367611072565b5b61137484828501611309565b91505092915050565b5f8115159050919050565b6113918161137d565b82525050565b5f81519050919050565b5f82825260208201905092915050565b8281835e5f83830152505050565b5f6113c982611397565b6113d381856113a1565b93506113e38185602086016113b1565b6113ec81611202565b840191505092915050565b5f60408201905061140a5f830185611388565b818103602083015261141c81846113bf565b90509392505050565b5f73ffffffffffffffffffffffffffffffffffffffff82169050919050565b5f61144e82611425565b9050919050565b61145e81611444565b82525050565b5f6020820190506114775f830184611455565b92915050565b61148681611444565b8114611490575f80fd5b50565b5f813590506114a18161147d565b92915050565b5f602082840312156114bc576114bb61106e565b5b5f6114c984828501611493565b91505092915050565b5f819050919050565b5f6114f56114f06114eb84611425565b6114d2565b611425565b9050919050565b5f611506826114db565b9050919050565b5f611517826114fc565b9050919050565b6115278161150d565b82525050565b5f6020820190506115405f83018461151e565b92915050565b5f6040820190506115595f830185611455565b6115666020830184611455565b9392505050565b7f4e487b71000000000000000000000000000000000000000000000000000000005f52602160045260245ffd5b5f6060820190506115ad5f83018661103d565b6115ba602083018561103d565b6115c7604083018461103d565b949350505050565b5f819050919050565b6115e1816115cf565b82525050565b6115f081611034565b82525050565b5f61ffff82169050919050565b61160c816115f6565b82525050565b5f63ffffffff82169050919050565b61162a81611612565b82525050565b5f82825260208201905092915050565b5f61164a82611397565b6116548185611630565b93506116648185602086016113b1565b61166d81611202565b840191505092915050565b5f60c083015f83015161168d5f8601826115d8565b5060208301516116a060208601826115e7565b5060408301516116b36040860182611603565b5060608301516116c66060860182611621565b5060808301516116d96080860182611621565b5060a083015184820360a08601526116f18282611640565b9150508091505092915050565b5f6020820190508181035f8301526117168184611678565b905092915050565b5f8151905061172c81611076565b92915050565b5f602082840312156117475761174661106e565b5b5f6117548482850161171e565b91505092915050565b7f4e487b71000000000000000000000000000000000000000000000000000000005f52601160045260245ffd5b5f61179482611034565b915061179f83611034565b92508282039050818111156117b7576117b661175d565b5b92915050565b5f82825260208201905092915050565b7f4d7573742062652070726f706f736564206f776e6572000000000000000000005f82015250565b5f6118016016836117bd565b915061180c826117cd565b602082019050919050565b5f6020820190508181035f83015261182e816117f5565b9050919050565b5f6060820190506118485f830186611455565b6118556020830185611455565b6118626040830184611455565b949350505050565b7f4e487b71000000000000000000000000000000000000000000000000000000005f52603260045260245ffd5b7f4e487b71000000000000000000000000000000000000000000000000000000005f52601260045260245ffd5b5f6118ce82611034565b91506118d983611034565b9250826118e9576118e8611897565b5b828206905092915050565b5f81905092915050565b50565b5f61190c5f836118f4565b9150611917826118fe565b5f82019050919050565b5f61192b82611901565b9150819050919050565b61193e8161137d565b82525050565b602082015f8201516119585f850182611935565b50505050565b5f6020820190506119715f830184611944565b92915050565b7f4f6e6c792063616c6c61626c65206279206f776e6572000000000000000000005f82015250565b5f6119ab6016836117bd565b91506119b682611977565b602082019050919050565b5f6020820190508181035f8301526119d88161199f565b9050919050565b7f43616e6e6f74207472616e7366657220746f2073656c660000000000000000005f82015250565b5f611a136017836117bd565b9150611a1e826119df565b602082019050919050565b5f6020820190508181035f830152611a4081611a07565b905091905056fea26469706673582212203b556b0b9d3271a458598e516b9fcd03bd9855d6975f7728a18a74bd0424998864736f6c634300081a0033","linkReferences":{}},"methodIdentifiers":{"acceptOwnership()":"79ba5097","checkUpkeep(bytes)":"6e04ff0d","enterRaffle()":"2cfcc539","getEntranceFee()":"09bc33a7","owner()":"8da5cb5b","performUpkeep(bytes)":"4585e33b","rawFulfillRandomWords(uint256,uint256[])":"1fe543e3","s_vrfCoordinator()":"9eccacf6","setCoordinator(address)":"8ea98117","transferOwnership(address)":"f2fde38b"},"id":8}