{"abi":[{"type":"constructor","inputs":[{"name":"entranceFee","type":"uint256","internalType":"uint256"},{"name":"interval","type":"uint256","internalType":"uint256"},{"name":"vrfCoordinator","type":"address","internalType":"address"},{"name":"gaslane","type":"bytes32","internalType":"bytes32"},{"name":"subscriptionId","type":"uint256","internalType":"uint256"},{"name":"callbackGasLimit","type":"uint32","internalType":"uint32"}],"stateMutability":"nonpayable"},{"type":"function","name":"acceptOwnership","inputs":[],"outputs":[],"stateMutability":"nonpayable"},{"type":"function","name":"checkUpkeep","inputs":[{"name":"","type":"bytes","internalType":"bytes"}],"outputs":[{"name":"upkeepNeeded","type":"bool","internalType":"bool"},{"name":"","type":"bytes","internalType":"bytes"}],"stateMutability":"view"},{"type":"function","name":"enterRaffle","inputs":[],"outputs":[],"stateMutability":"payable"},{"type":"function","name":"getEntranceFee","inputs":[],"outputs":[{"name":"","type":"uint256","internalType":"uint256"}],"stateMutability":"view"},{"type":"function","name":"getLastTimeStamp","inputs":[],"outputs":[{"name":"","type":"uint256","internalType":"uint256"}],"stateMutability":"view"},{"type":"function","name":"getPlayer","inputs":[{"name":"indexofPlayer","type":"uint256","internalType":"uint256"}],"outputs":[{"name":"","type":"address","internalType":"address"}],"stateMutability":"view"},{"type":"function","name":"getRaffleState","inputs":[],"outputs":[{"name":"","type":"uint8","internalType":"enum Raffle.RaffleState"}],"stateMutability":"view"},{"type":"function","name":"getRecentWinner","inputs":[],"outputs":[{"name":"","type":"address","internalType":"address"}],"stateMutability":"view"},{"type":"function","name":"owner","inputs":[],"outputs":[{"name":"","type":"address","internalType":"address"}],"stateMutability":"view"},{"type":"function","name":"performUpkeep","inputs":[{"name":"","type":"bytes","internalType":"bytes"}],"outputs":[],"stateMutability":"nonpayable"},{"type":"function","name":"rawFulfillRandomWords","inputs":[{"name":"requestId","type":"uint256","internalType":"uint256"},{"name":"randomWords","type":"uint256[]","internalType":"uint256[]"}],"outputs":[],"stateMutability":"nonpayable"},{"type":"function","name":"s_vrfCoordinator","inputs":[],"outputs":[{"name":"","type":"address","internalType":"contract IVRFCoordinatorV2Plus"}],"stateMutability":"view"},{"type":"function","name":"setCoordinator","inputs":[{"name":"_vrfCoordinator","type":"address","internalType":"address"}],"outputs":[],"stateMutability":"nonpayable"},{"type":"function","name":"transferOwnership","inputs":[{"name":"to","type":"address","internalType":"address"}],"outputs":[],"stateMutability":"nonpayable"},{"type":"event","name":"CoordinatorSet","inputs":[{"name":"vrfCoordinator","type":"address","indexed":false,"internalType":"address"}],"anonymous":false},{"type":"event","name":"OwnershipTransferRequested","inputs":[{"name":"from","type":"address","indexed":true,"internalType":"address"},{"name":"to","type":"address","indexed":true,"internalType":"address"}],"anonymous":false},{"type":"event","name":"OwnershipTransferred","inputs":[{"name":"from","type":"address","indexed":true,"internalType":"address"},{"name":"to","type":"address","indexed":true,"internalType":"address"}],"anonymous":false},{"type":"event","name":"RaffleEnter","inputs":[{"name":"player","type":"address","indexed":true,"internalType":"address"}],"anonymous":false},{"type":"event","name":"RequestRaffleWinner","inputs":[{"name":"requestId","type":"uint256","indexed":true,"internalType":"uint256"}],"anonymous":false},{"type":"event","name":"WinnerPicked","inputs":[{"name":"winner","type":"address","indexed":true,"internalType":"address"}],"anonymous":false},{"type":"error","name":"OnlyCoordinatorCanFulfill","inputs":[{"name":"have","type":"address","internalType":"address"},{"name":"want","type":"address","internalType":"address"}]},{"type":"error","name":"OnlyOwnerOrCoordinator","inputs":[{"name":"have","type":"address","internalType":"address"},{"name":"owner","type":"address","internalType":"address"},{"name":"coordinator","type":"address","internalType":"address"}]},{"type":"error","name":"Raffle__RaffleNotOpen","inputs":[]},{"type":"error","name":"Raffle__SendMoreToEnterRaffle","inputs":[]},{"type":"error","name":"Raffle__TransferFailed","inputs":[]},{"type":"error","name":"Raffle__UpkeepNotNeeded","inputs":[{"name":"balance","type":"uint256","internalType":"uint256"},{"name":"playersLength","type":"uint256","internalType":"uint256"},{"name":"raffleState","type":"uint256","internalType":"uint256"}]},{"type":"error","name":"ZeroAddress","inputs":[]}],"bytecode":{"object":"0x6101206040523480156200001257600080fd5b5060405162002451380380620024518339818101604052810190620000389190620004a7565b83338060008073ffffffffffffffffffffffffffffffffffffffff168273ffffffffffffffffffffffffffffffffffffffff1603620000ae576040517f08c379a0000000000000000000000000000000000000000000000000000000008152600401620000a590620005a4565b60405180910390fd5b816000806101000a81548173ffffffffffffffffffffffffffffffffffffffff021916908373ffffffffffffffffffffffffffffffffffffffff160217905550600073ffffffffffffffffffffffffffffffffffffffff168173ffffffffffffffffffffffffffffffffffffffff1614620001355762000134816200025760201b60201c565b5b505050600073ffffffffffffffffffffffffffffffffffffffff168173ffffffffffffffffffffffffffffffffffffffff16036200019f576040517fd92e233d00000000000000000000000000000000000000000000000000000000815260040160405180910390fd5b80600260006101000a81548173ffffffffffffffffffffffffffffffffffffffff021916908373ffffffffffffffffffffffffffffffffffffffff1602179055505085608081815250508460a081815250508260c081815250508160e081815250508063ffffffff166101008163ffffffff1681525050426004819055506000600560146101000a81548160ff02191690836001811115620002465762000245620005c6565b5b021790555050505050505062000667565b3373ffffffffffffffffffffffffffffffffffffffff168173ffffffffffffffffffffffffffffffffffffffff1603620002c8576040517f08c379a0000000000000000000000000000000000000000000000000000000008152600401620002bf9062000645565b60405180910390fd5b80600160006101000a81548173ffffffffffffffffffffffffffffffffffffffff021916908373ffffffffffffffffffffffffffffffffffffffff1602179055508073ffffffffffffffffffffffffffffffffffffffff1660008054906101000a900473ffffffffffffffffffffffffffffffffffffffff1673ffffffffffffffffffffffffffffffffffffffff167fed8889f560326eb138920d842192f0eb3dd22b4f139c87a2c57538e05bae127860405160405180910390a350565b600080fd5b6000819050919050565b620003a0816200038b565b8114620003ac57600080fd5b50565b600081519050620003c08162000395565b92915050565b600073ffffffffffffffffffffffffffffffffffffffff82169050919050565b6000620003f382620003c6565b9050919050565b6200040581620003e6565b81146200041157600080fd5b50565b6000815190506200042581620003fa565b92915050565b6000819050919050565b62000440816200042b565b81146200044c57600080fd5b50565b600081519050620004608162000435565b92915050565b600063ffffffff82169050919050565b620004818162000466565b81146200048d57600080fd5b50565b600081519050620004a18162000476565b92915050565b60008060008060008060c08789031215620004c757620004c662000386565b5b6000620004d789828a01620003af565b9650506020620004ea89828a01620003af565b9550506040620004fd89828a0162000414565b94505060606200051089828a016200044f565b93505060806200052389828a01620003af565b92505060a06200053689828a0162000490565b9150509295509295509295565b600082825260208201905092915050565b7f43616e6e6f7420736574206f776e657220746f207a65726f0000000000000000600082015250565b60006200058c60188362000543565b9150620005998262000554565b602082019050919050565b60006020820190508181036000830152620005bf816200057d565b9050919050565b7f4e487b7100000000000000000000000000000000000000000000000000000000600052602160045260246000fd5b7f43616e6e6f74207472616e7366657220746f2073656c66000000000000000000600082015250565b60006200062d60178362000543565b91506200063a82620005f5565b602082019050919050565b6000602082019050818103600083015262000660816200061e565b9050919050565b60805160a05160c05160e05161010051611d9e620006b360003960006106b2015260006106810152600061065b01526000610810015260008181610328015261042b0152611d9e6000f3fe6080604052600436106100dd5760003560e01c806379ba50971161007f5780639eccacf6116100595780639eccacf614610268578063c1c244e814610293578063e55ae4e8146102be578063f2fde38b146102fb576100dd565b806379ba5097146101fd5780638da5cb5b146102145780638ea981171461023f576100dd565b80632cfcc539116100bb5780632cfcc539146101615780634585e33b1461016b578063473f1ddc146101945780636e04ff0d146101bf576100dd565b806309bc33a7146100e2578063115cbaf51461010d5780631fe543e314610138575b600080fd5b3480156100ee57600080fd5b506100f7610324565b604051610104919061125e565b60405180910390f35b34801561011957600080fd5b5061012261034c565b60405161012f91906112f0565b60405180910390f35b34801561014457600080fd5b5061015f600480360381019061015a91906113b0565b610363565b005b610169610429565b005b34801561017757600080fd5b50610192600480360381019061018d9190611466565b610598565b005b3480156101a057600080fd5b506101a96107de565b6040516101b691906114f4565b60405180910390f35b3480156101cb57600080fd5b506101e660048036038101906101e19190611650565b610808565b6040516101f4929190611733565b60405180910390f35b34801561020957600080fd5b506102126108ca565b005b34801561022057600080fd5b50610229610a5f565b60405161023691906114f4565b60405180910390f35b34801561024b57600080fd5b506102666004803603810190610261919061178f565b610a88565b005b34801561027457600080fd5b5061027d610c69565b60405161028a919061181b565b60405180910390f35b34801561029f57600080fd5b506102a8610c8f565b6040516102b5919061125e565b60405180910390f35b3480156102ca57600080fd5b506102e560048036038101906102e09190611836565b610c99565b6040516102f291906114f4565b60405180910390f35b34801561030757600080fd5b50610322600480360381019061031d919061178f565b610ce1565b005b60007f0000000000000000000000000000000000000000000000000000000000000000905090565b6000600560149054906101000a900460ff16905090565b600260009054906101000a900473ffffffffffffffffffffffffffffffffffffffff1673ffffffffffffffffffffffffffffffffffffffff163373ffffffffffffffffffffffffffffffffffffffff16146104195733600260009054906101000a900473ffffffffffffffffffffffffffffffffffffffff166040517f1cf993f4000000000000000000000000000000000000000000000000000000008152600401610410929190611863565b60405180910390fd5b610424838383610cf5565b505050565b7f0000000000000000000000000000000000000000000000000000000000000000341015610483576040517f3038c00a00000000000000000000000000000000000000000000000000000000815260040160405180910390fd5b6000600181111561049757610496611279565b5b600560149054906101000a900460ff1660018111156104b9576104b8611279565b5b146104f0576040517fd24a271400000000000000000000000000000000000000000000000000000000815260040160405180910390fd5b6003339080600181540180825580915050600190039060005260206000200160009091909190916101000a81548173ffffffffffffffffffffffffffffffffffffffff021916908373ffffffffffffffffffffffffffffffffffffffff1602179055503373ffffffffffffffffffffffffffffffffffffffff167f0805e1d667bddb8a95f0f09880cf94f403fb596ce79928d9f29b74203ba284d460405160405180910390a2565b60006105b260405180602001604052806000815250610808565b509050806106215747600380549050600560149054906101000a900460ff1660018111156105e3576105e2611279565b5b6040517f584327aa0000000000000000000000000000000000000000000000000000000081526004016106189392919061188c565b60405180910390fd5b6001600560146101000a81548160ff0219169083600181111561064757610646611279565b5b021790555060006040518060c001604052807f000000000000000000000000000000000000000000000000000000000000000081526020017f00000000000000000000000000000000000000000000000000000000000000008152602001600361ffff1681526020017f000000000000000000000000000000000000000000000000000000000000000063ffffffff168152602001600163ffffffff168152602001610703604051806020016040528060001515815250610f4a565b81525090506000600260009054906101000a900473ffffffffffffffffffffffffffffffffffffffff1673ffffffffffffffffffffffffffffffffffffffff16639b1c385e836040518263ffffffff1660e01b815260040161076591906119fa565b6020604051808303816000875af1158015610784573d6000803e3d6000fd5b505050506040513d601f19601f820116820180604052508101906107a89190611a31565b9050807fde6349b018d6c03d837b67d9a198a6ba4842546f2295fe963fae141e5dbaef8160405160405180910390a25050505050565b6000600560009054906101000a900473ffffffffffffffffffffffffffffffffffffffff16905090565b6000606060007f00000000000000000000000000000000000000000000000000000000000000006004544261083d9190611a8d565b10159050600080600181111561085657610855611279565b5b600560149054906101000a900460ff16600181111561087857610877611279565b5b149050600080471190506000806003805490501190508380156108985750825b80156108a15750815b80156108aa5750805b955085604051806020016040528060008152509550955050505050915091565b600160009054906101000a900473ffffffffffffffffffffffffffffffffffffffff1673ffffffffffffffffffffffffffffffffffffffff163373ffffffffffffffffffffffffffffffffffffffff161461095a576040517f08c379a000000000000000000000000000000000000000000000000000000000815260040161095190611b1e565b60405180910390fd5b60008060009054906101000a900473ffffffffffffffffffffffffffffffffffffffff169050336000806101000a81548173ffffffffffffffffffffffffffffffffffffffff021916908373ffffffffffffffffffffffffffffffffffffffff1602179055506000600160006101000a81548173ffffffffffffffffffffffffffffffffffffffff021916908373ffffffffffffffffffffffffffffffffffffffff1602179055503373ffffffffffffffffffffffffffffffffffffffff168173ffffffffffffffffffffffffffffffffffffffff167f8be0079c531659141344cd1fd0a4f28419497f9722a3daafe3b4186f6b6457e060405160405180910390a350565b60008060009054906101000a900473ffffffffffffffffffffffffffffffffffffffff16905090565b610a90610a5f565b73ffffffffffffffffffffffffffffffffffffffff163373ffffffffffffffffffffffffffffffffffffffff1614158015610b195750600260009054906101000a900473ffffffffffffffffffffffffffffffffffffffff1673ffffffffffffffffffffffffffffffffffffffff163373ffffffffffffffffffffffffffffffffffffffff1614155b15610b885733610b27610a5f565b600260009054906101000a900473ffffffffffffffffffffffffffffffffffffffff166040517f061db9c1000000000000000000000000000000000000000000000000000000008152600401610b7f93929190611b3e565b60405180910390fd5b600073ffffffffffffffffffffffffffffffffffffffff168173ffffffffffffffffffffffffffffffffffffffff1603610bee576040517fd92e233d00000000000000000000000000000000000000000000000000000000815260040160405180910390fd5b80600260006101000a81548173ffffffffffffffffffffffffffffffffffffffff021916908373ffffffffffffffffffffffffffffffffffffffff1602179055507fd1a6a14209a385a964d036e404cb5cfb71f4000cdb03c9366292430787261be681604051610c5e91906114f4565b60405180910390a150565b600260009054906101000a900473ffffffffffffffffffffffffffffffffffffffff1681565b6000600454905090565b600060038281548110610caf57610cae611b75565b5b9060005260206000200160009054906101000a900473ffffffffffffffffffffffffffffffffffffffff169050919050565b610ce9610fe2565b610cf281611072565b50565b600060038054905083836000818110610d1157610d10611b75565b5b90506020020135610d229190611bd3565b9050600060038281548110610d3a57610d39611b75565b5b9060005260206000200160009054906101000a900473ffffffffffffffffffffffffffffffffffffffff16905080600560006101000a81548173ffffffffffffffffffffffffffffffffffffffff021916908373ffffffffffffffffffffffffffffffffffffffff1602179055506000600560146101000a81548160ff02191690836001811115610dce57610dcd611279565b5b0217905550600067ffffffffffffffff811115610dee57610ded611525565b5b604051908082528060200260200182016040528015610e1c5781602001602082028036833780820191505090505b5060039080519060200190610e3292919061119e565b5042600481905550600560009054906101000a900473ffffffffffffffffffffffffffffffffffffffff1673ffffffffffffffffffffffffffffffffffffffff167f5b690ec4a06fe979403046eaeea5b3ce38524683c3001f662c8b5a829632f7df60405160405180910390a260008173ffffffffffffffffffffffffffffffffffffffff1647604051610ec590611c35565b60006040518083038185875af1925050503d8060008114610f02576040519150601f19603f3d011682016040523d82523d6000602084013e610f07565b606091505b5050905080610f42576040517fa1d04b3900000000000000000000000000000000000000000000000000000000815260040160405180910390fd5b505050505050565b60607f92fd13387c7fe7befbc38d303d6468778fb9731bc4583f17d92989c6fcfdeaaa82604051602401610f7e9190611c75565b604051602081830303815290604052907bffffffffffffffffffffffffffffffffffffffffffffffffffffffff19166020820180517bffffffffffffffffffffffffffffffffffffffffffffffffffffffff83818316178352505050509050919050565b60008054906101000a900473ffffffffffffffffffffffffffffffffffffffff1673ffffffffffffffffffffffffffffffffffffffff163373ffffffffffffffffffffffffffffffffffffffff1614611070576040517f08c379a000000000000000000000000000000000000000000000000000000000815260040161106790611cdc565b60405180910390fd5b565b3373ffffffffffffffffffffffffffffffffffffffff168173ffffffffffffffffffffffffffffffffffffffff16036110e0576040517f08c379a00000000000000000000000000000000000000000000000000000000081526004016110d790611d48565b60405180910390fd5b80600160006101000a81548173ffffffffffffffffffffffffffffffffffffffff021916908373ffffffffffffffffffffffffffffffffffffffff1602179055508073ffffffffffffffffffffffffffffffffffffffff1660008054906101000a900473ffffffffffffffffffffffffffffffffffffffff1673ffffffffffffffffffffffffffffffffffffffff167fed8889f560326eb138920d842192f0eb3dd22b4f139c87a2c57538e05bae127860405160405180910390a350565b828054828255906000526020600020908101928215611217579160200282015b828111156112165782518260006101000a81548173ffffffffffffffffffffffffffffffffffffffff021916908373ffffffffffffffffffffffffffffffffffffffff160217905550916020019190600101906111be565b5b5090506112249190611228565b5090565b5b80821115611241576000816000905550600101611229565b5090565b6000819050919050565b61125881611245565b82525050565b6000602082019050611273600083018461124f565b92915050565b7f4e487b7100000000000000000000000000000000000000000000000000000000600052602160045260246000fd5b600281106112b9576112b8611279565b5b50565b60008190506112ca826112a8565b919050565b60006112da826112bc565b9050919050565b6112ea816112cf565b82525050565b600060208201905061130560008301846112e1565b92915050565b6000604051905090565b600080fd5b600080fd5b61132881611245565b811461133357600080fd5b50565b6000813590506113458161131f565b92915050565b600080fd5b600080fd5b600080fd5b60008083601f8401126113705761136f61134b565b5b8235905067ffffffffffffffff81111561138d5761138c611350565b5b6020830191508360208202830111156113a9576113a8611355565b5b9250929050565b6000806000604084860312156113c9576113c8611315565b5b60006113d786828701611336565b935050602084013567ffffffffffffffff8111156113f8576113f761131a565b5b6114048682870161135a565b92509250509250925092565b60008083601f8401126114265761142561134b565b5b8235905067ffffffffffffffff81111561144357611442611350565b5b60208301915083600182028301111561145f5761145e611355565b5b9250929050565b6000806020838503121561147d5761147c611315565b5b600083013567ffffffffffffffff81111561149b5761149a61131a565b5b6114a785828601611410565b92509250509250929050565b600073ffffffffffffffffffffffffffffffffffffffff82169050919050565b60006114de826114b3565b9050919050565b6114ee816114d3565b82525050565b600060208201905061150960008301846114e5565b92915050565b600080fd5b6000601f19601f8301169050919050565b7f4e487b7100000000000000000000000000000000000000000000000000000000600052604160045260246000fd5b61155d82611514565b810181811067ffffffffffffffff8211171561157c5761157b611525565b5b80604052505050565b600061158f61130b565b905061159b8282611554565b919050565b600067ffffffffffffffff8211156115bb576115ba611525565b5b6115c482611514565b9050602081019050919050565b82818337600083830152505050565b60006115f36115ee846115a0565b611585565b90508281526020810184848401111561160f5761160e61150f565b5b61161a8482856115d1565b509392505050565b600082601f8301126116375761163661134b565b5b81356116478482602086016115e0565b91505092915050565b60006020828403121561166657611665611315565b5b600082013567ffffffffffffffff8111156116845761168361131a565b5b61169084828501611622565b91505092915050565b60008115159050919050565b6116ae81611699565b82525050565b600081519050919050565b600082825260208201905092915050565b60005b838110156116ee5780820151818401526020810190506116d3565b60008484015250505050565b6000611705826116b4565b61170f81856116bf565b935061171f8185602086016116d0565b61172881611514565b840191505092915050565b600060408201905061174860008301856116a5565b818103602083015261175a81846116fa565b90509392505050565b61176c816114d3565b811461177757600080fd5b50565b60008135905061178981611763565b92915050565b6000602082840312156117a5576117a4611315565b5b60006117b38482850161177a565b91505092915050565b6000819050919050565b60006117e16117dc6117d7846114b3565b6117bc565b6114b3565b9050919050565b60006117f3826117c6565b9050919050565b6000611805826117e8565b9050919050565b611815816117fa565b82525050565b6000602082019050611830600083018461180c565b92915050565b60006020828403121561184c5761184b611315565b5b600061185a84828501611336565b91505092915050565b600060408201905061187860008301856114e5565b61188560208301846114e5565b9392505050565b60006060820190506118a1600083018661124f565b6118ae602083018561124f565b6118bb604083018461124f565b949350505050565b6000819050919050565b6118d6816118c3565b82525050565b6118e581611245565b82525050565b600061ffff82169050919050565b611902816118eb565b82525050565b600063ffffffff82169050919050565b61192181611908565b82525050565b600082825260208201905092915050565b6000611943826116b4565b61194d8185611927565b935061195d8185602086016116d0565b61196681611514565b840191505092915050565b600060c08301600083015161198960008601826118cd565b50602083015161199c60208601826118dc565b5060408301516119af60408601826118f9565b5060608301516119c26060860182611918565b5060808301516119d56080860182611918565b5060a083015184820360a08601526119ed8282611938565b9150508091505092915050565b60006020820190508181036000830152611a148184611971565b905092915050565b600081519050611a2b8161131f565b92915050565b600060208284031215611a4757611a46611315565b5b6000611a5584828501611a1c565b91505092915050565b7f4e487b7100000000000000000000000000000000000000000000000000000000600052601160045260246000fd5b6000611a9882611245565b9150611aa383611245565b9250828203905081811115611abb57611aba611a5e565b5b92915050565b600082825260208201905092915050565b7f4d7573742062652070726f706f736564206f776e657200000000000000000000600082015250565b6000611b08601683611ac1565b9150611b1382611ad2565b602082019050919050565b60006020820190508181036000830152611b3781611afb565b9050919050565b6000606082019050611b5360008301866114e5565b611b6060208301856114e5565b611b6d60408301846114e5565b949350505050565b7f4e487b7100000000000000000000000000000000000000000000000000000000600052603260045260246000fd5b7f4e487b7100000000000000000000000000000000000000000000000000000000600052601260045260246000fd5b6000611bde82611245565b9150611be983611245565b925082611bf957611bf8611ba4565b5b828206905092915050565b600081905092915050565b50565b6000611c1f600083611c04565b9150611c2a82611c0f565b600082019050919050565b6000611c4082611c12565b9150819050919050565b611c5381611699565b82525050565b602082016000820151611c6f6000850182611c4a565b50505050565b6000602082019050611c8a6000830184611c59565b92915050565b7f4f6e6c792063616c6c61626c65206279206f776e657200000000000000000000600082015250565b6000611cc6601683611ac1565b9150611cd182611c90565b602082019050919050565b60006020820190508181036000830152611cf581611cb9565b9050919050565b7f43616e6e6f74207472616e7366657220746f2073656c66000000000000000000600082015250565b6000611d32601783611ac1565b9150611d3d82611cfc565b602082019050919050565b60006020820190508181036000830152611d6181611d25565b905091905056fea264697066735822122091306d5f4929eb7d96872482acf5d0a438167d94f940cdfa09e1f99ec03aa82464736f6c63430008130033","linkReferences":{}},"methodIdentifiers":{"acceptOwnership()":"79ba5097","checkUpkeep(bytes)":"6e04ff0d","enterRaffle()":"2cfcc539","getEntranceFee()":"09bc33a7","getLastTimeStamp()":"c1c244e8","getPlayer(uint256)":"e55ae4e8","getRaffleState()":"115cbaf5","getRecentWinner()":"473f1ddc","owner()":"8da5cb5b","performUpkeep(bytes)":"4585e33b","rawFulfillRandomWords(uint256,uint256[])":"1fe543e3","s_vrfCoordinator()":"9eccacf6","setCoordinator(address)":"8ea98117","transferOwnership(address)":"f2fde38b"},"id":39}