{"abi":[{"type":"constructor","inputs":[{"name":"entranceFee","type":"uint256","internalType":"uint256"},{"name":"interval","type":"uint256","internalType":"uint256"},{"name":"vrfCoordinator","type":"address","internalType":"address"}],"stateMutability":"nonpayable"},{"type":"function","name":"acceptOwnership","inputs":[],"outputs":[],"stateMutability":"nonpayable"},{"type":"function","name":"getEntranceFee","inputs":[],"outputs":[{"name":"","type":"uint256","internalType":"uint256"}],"stateMutability":"view"},{"type":"function","name":"owner","inputs":[],"outputs":[{"name":"","type":"address","internalType":"address"}],"stateMutability":"view"},{"type":"function","name":"pickWinner","inputs":[],"outputs":[],"stateMutability":"view"},{"type":"function","name":"rawFulfillRandomWords","inputs":[{"name":"requestId","type":"uint256","internalType":"uint256"},{"name":"randomWords","type":"uint256[]","internalType":"uint256[]"}],"outputs":[],"stateMutability":"nonpayable"},{"type":"function","name":"s_vrfCoordinator","inputs":[],"outputs":[{"name":"","type":"address","internalType":"contract IVRFCoordinatorV2Plus"}],"stateMutability":"view"},{"type":"function","name":"setCoordinator","inputs":[{"name":"_vrfCoordinator","type":"address","internalType":"address"}],"outputs":[],"stateMutability":"nonpayable"},{"type":"function","name":"transferOwnership","inputs":[{"name":"to","type":"address","internalType":"address"}],"outputs":[],"stateMutability":"nonpayable"},{"type":"event","name":"CoordinatorSet","inputs":[{"name":"vrfCoordinator","type":"address","indexed":false,"internalType":"address"}],"anonymous":false},{"type":"event","name":"OwnershipTransferRequested","inputs":[{"name":"from","type":"address","indexed":true,"internalType":"address"},{"name":"to","type":"address","indexed":true,"internalType":"address"}],"anonymous":false},{"type":"event","name":"OwnershipTransferred","inputs":[{"name":"from","type":"address","indexed":true,"internalType":"address"},{"name":"to","type":"address","indexed":true,"internalType":"address"}],"anonymous":false},{"type":"event","name":"WinnerPicked","inputs":[{"name":"winner","type":"address","indexed":true,"internalType":"address"}],"anonymous":false},{"type":"error","name":"OnlyCoordinatorCanFulfill","inputs":[{"name":"have","type":"address","internalType":"address"},{"name":"want","type":"address","internalType":"address"}]},{"type":"error","name":"OnlyOwnerOrCoordinator","inputs":[{"name":"have","type":"address","internalType":"address"},{"name":"owner","type":"address","internalType":"address"},{"name":"coordinator","type":"address","internalType":"address"}]},{"type":"error","name":"Raffle__SendMoreToEnterRaffle","inputs":[]},{"type":"error","name":"ZeroAddress","inputs":[]}],"bytecode":{"object":"0x60c060405234801561000f575f80fd5b50604051611171380380611171833981810160405281019061003191906103a8565b8033805f8073ffffffffffffffffffffffffffffffffffffffff168273ffffffffffffffffffffffffffffffffffffffff16036100a3576040517f08c379a000000000000000000000000000000000000000000000000000000000815260040161009a90610452565b60405180910390fd5b815f806101000a81548173ffffffffffffffffffffffffffffffffffffffff021916908373ffffffffffffffffffffffffffffffffffffffff1602179055505f73ffffffffffffffffffffffffffffffffffffffff168173ffffffffffffffffffffffffffffffffffffffff161461012557610124816101ed60201b60201c565b5b5050505f73ffffffffffffffffffffffffffffffffffffffff168173ffffffffffffffffffffffffffffffffffffffff160361018d576040517fd92e233d00000000000000000000000000000000000000000000000000000000815260040160405180910390fd5b8060025f6101000a81548173ffffffffffffffffffffffffffffffffffffffff021916908373ffffffffffffffffffffffffffffffffffffffff1602179055505082608081815250508160a08181525050426004819055505050506104d8565b3373ffffffffffffffffffffffffffffffffffffffff168173ffffffffffffffffffffffffffffffffffffffff160361025b576040517f08c379a0000000000000000000000000000000000000000000000000000000008152600401610252906104ba565b60405180910390fd5b8060015f6101000a81548173ffffffffffffffffffffffffffffffffffffffff021916908373ffffffffffffffffffffffffffffffffffffffff1602179055508073ffffffffffffffffffffffffffffffffffffffff165f8054906101000a900473ffffffffffffffffffffffffffffffffffffffff1673ffffffffffffffffffffffffffffffffffffffff167fed8889f560326eb138920d842192f0eb3dd22b4f139c87a2c57538e05bae127860405160405180910390a350565b5f80fd5b5f819050919050565b61032d8161031b565b8114610337575f80fd5b50565b5f8151905061034881610324565b92915050565b5f73ffffffffffffffffffffffffffffffffffffffff82169050919050565b5f6103778261034e565b9050919050565b6103878161036d565b8114610391575f80fd5b50565b5f815190506103a28161037e565b92915050565b5f805f606084860312156103bf576103be610317565b5b5f6103cc8682870161033a565b93505060206103dd8682870161033a565b92505060406103ee86828701610394565b9150509250925092565b5f82825260208201905092915050565b7f43616e6e6f7420736574206f776e657220746f207a65726f00000000000000005f82015250565b5f61043c6018836103f8565b915061044782610408565b602082019050919050565b5f6020820190508181035f83015261046981610430565b9050919050565b7f43616e6e6f74207472616e7366657220746f2073656c660000000000000000005f82015250565b5f6104a46017836103f8565b91506104af82610470565b602082019050919050565b5f6020820190508181035f8301526104d181610498565b9050919050565b60805160a051610c786104f95f395f61023901525f61014f0152610c785ff3fe608060405234801561000f575f80fd5b5060043610610086575f3560e01c80638da5cb5b116100595780638da5cb5b146100d85780638ea98117146100f65780639eccacf614610112578063f2fde38b1461013057610086565b806309bc33a71461008a5780631fe543e3146100a85780635d495aea146100c457806379ba5097146100ce575b5f80fd5b61009261014c565b60405161009f9190610814565b60405180910390f35b6100c260048036038101906100bd91906108c0565b610173565b005b6100cc610237565b005b6100d6610272565b005b6100e0610401565b6040516100ed919061095c565b60405180910390f35b610110600480360381019061010b919061099f565b610428565b005b61011a610605565b6040516101279190610a25565b60405180910390f35b61014a6004803603810190610145919061099f565b61062a565b005b5f7f0000000000000000000000000000000000000000000000000000000000000000905090565b60025f9054906101000a900473ffffffffffffffffffffffffffffffffffffffff1673ffffffffffffffffffffffffffffffffffffffff163373ffffffffffffffffffffffffffffffffffffffff1614610227573360025f9054906101000a900473ffffffffffffffffffffffffffffffffffffffff166040517f1cf993f400000000000000000000000000000000000000000000000000000000815260040161021e929190610a3e565b60405180910390fd5b61023283838361063e565b505050565b7f0000000000000000000000000000000000000000000000000000000000000000600454426102669190610a92565b1015610270575f80fd5b565b60015f9054906101000a900473ffffffffffffffffffffffffffffffffffffffff1673ffffffffffffffffffffffffffffffffffffffff163373ffffffffffffffffffffffffffffffffffffffff1614610301576040517f08c379a00000000000000000000000000000000000000000000000000000000081526004016102f890610b1f565b60405180910390fd5b5f805f9054906101000a900473ffffffffffffffffffffffffffffffffffffffff169050335f806101000a81548173ffffffffffffffffffffffffffffffffffffffff021916908373ffffffffffffffffffffffffffffffffffffffff1602179055505f60015f6101000a81548173ffffffffffffffffffffffffffffffffffffffff021916908373ffffffffffffffffffffffffffffffffffffffff1602179055503373ffffffffffffffffffffffffffffffffffffffff168173ffffffffffffffffffffffffffffffffffffffff167f8be0079c531659141344cd1fd0a4f28419497f9722a3daafe3b4186f6b6457e060405160405180910390a350565b5f805f9054906101000a900473ffffffffffffffffffffffffffffffffffffffff16905090565b610430610401565b73ffffffffffffffffffffffffffffffffffffffff163373ffffffffffffffffffffffffffffffffffffffff16141580156104b8575060025f9054906101000a900473ffffffffffffffffffffffffffffffffffffffff1673ffffffffffffffffffffffffffffffffffffffff163373ffffffffffffffffffffffffffffffffffffffff1614155b1561052657336104c6610401565b60025f9054906101000a900473ffffffffffffffffffffffffffffffffffffffff166040517f061db9c100000000000000000000000000000000000000000000000000000000815260040161051d93929190610b3d565b60405180910390fd5b5f73ffffffffffffffffffffffffffffffffffffffff168173ffffffffffffffffffffffffffffffffffffffff160361058b576040517fd92e233d00000000000000000000000000000000000000000000000000000000815260040160405180910390fd5b8060025f6101000a81548173ffffffffffffffffffffffffffffffffffffffff021916908373ffffffffffffffffffffffffffffffffffffffff1602179055507fd1a6a14209a385a964d036e404cb5cfb71f4000cdb03c9366292430787261be6816040516105fa919061095c565b60405180910390a150565b60025f9054906101000a900473ffffffffffffffffffffffffffffffffffffffff1681565b610632610643565b61063b816106d2565b50565b505050565b5f8054906101000a900473ffffffffffffffffffffffffffffffffffffffff1673ffffffffffffffffffffffffffffffffffffffff163373ffffffffffffffffffffffffffffffffffffffff16146106d0576040517f08c379a00000000000000000000000000000000000000000000000000000000081526004016106c790610bbc565b60405180910390fd5b565b3373ffffffffffffffffffffffffffffffffffffffff168173ffffffffffffffffffffffffffffffffffffffff1603610740576040517f08c379a000000000000000000000000000000000000000000000000000000000815260040161073790610c24565b60405180910390fd5b8060015f6101000a81548173ffffffffffffffffffffffffffffffffffffffff021916908373ffffffffffffffffffffffffffffffffffffffff1602179055508073ffffffffffffffffffffffffffffffffffffffff165f8054906101000a900473ffffffffffffffffffffffffffffffffffffffff1673ffffffffffffffffffffffffffffffffffffffff167fed8889f560326eb138920d842192f0eb3dd22b4f139c87a2c57538e05bae127860405160405180910390a350565b5f819050919050565b61080e816107fc565b82525050565b5f6020820190506108275f830184610805565b92915050565b5f80fd5b5f80fd5b61083e816107fc565b8114610848575f80fd5b50565b5f8135905061085981610835565b92915050565b5f80fd5b5f80fd5b5f80fd5b5f8083601f8401126108805761087f61085f565b5b8235905067ffffffffffffffff81111561089d5761089c610863565b5b6020830191508360208202830111156108b9576108b8610867565b5b9250929050565b5f805f604084860312156108d7576108d661082d565b5b5f6108e48682870161084b565b935050602084013567ffffffffffffffff81111561090557610904610831565b5b6109118682870161086b565b92509250509250925092565b5f73ffffffffffffffffffffffffffffffffffffffff82169050919050565b5f6109468261091d565b9050919050565b6109568161093c565b82525050565b5f60208201905061096f5f83018461094d565b92915050565b61097e8161093c565b8114610988575f80fd5b50565b5f8135905061099981610975565b92915050565b5f602082840312156109b4576109b361082d565b5b5f6109c18482850161098b565b91505092915050565b5f819050919050565b5f6109ed6109e86109e38461091d565b6109ca565b61091d565b9050919050565b5f6109fe826109d3565b9050919050565b5f610a0f826109f4565b9050919050565b610a1f81610a05565b82525050565b5f602082019050610a385f830184610a16565b92915050565b5f604082019050610a515f83018561094d565b610a5e602083018461094d565b9392505050565b7f4e487b71000000000000000000000000000000000000000000000000000000005f52601160045260245ffd5b5f610a9c826107fc565b9150610aa7836107fc565b9250828203905081811115610abf57610abe610a65565b5b92915050565b5f82825260208201905092915050565b7f4d7573742062652070726f706f736564206f776e6572000000000000000000005f82015250565b5f610b09601683610ac5565b9150610b1482610ad5565b602082019050919050565b5f6020820190508181035f830152610b3681610afd565b9050919050565b5f606082019050610b505f83018661094d565b610b5d602083018561094d565b610b6a604083018461094d565b949350505050565b7f4f6e6c792063616c6c61626c65206279206f776e6572000000000000000000005f82015250565b5f610ba6601683610ac5565b9150610bb182610b72565b602082019050919050565b5f6020820190508181035f830152610bd381610b9a565b9050919050565b7f43616e6e6f74207472616e7366657220746f2073656c660000000000000000005f82015250565b5f610c0e601783610ac5565b9150610c1982610bda565b602082019050919050565b5f6020820190508181035f830152610c3b81610c02565b905091905056fea26469706673582212203317d587d371644421b21faa899b7859d2cb6230da7b8fc0d061c4279e8dc3cf64736f6c634300081a0033","linkReferences":{}},"methodIdentifiers":{"acceptOwnership()":"79ba5097","getEntranceFee()":"09bc33a7","owner()":"8da5cb5b","pickWinner()":"5d495aea","rawFulfillRandomWords(uint256,uint256[])":"1fe543e3","s_vrfCoordinator()":"9eccacf6","setCoordinator(address)":"8ea98117","transferOwnership(address)":"f2fde38b"},"id":8}