{"abi":[{"type":"constructor","inputs":[{"name":"entranceFee","type":"uint256","internalType":"uint256"},{"name":"interval","type":"uint256","internalType":"uint256"},{"name":"vrfCoordinator","type":"address","internalType":"address"},{"name":"gaslane","type":"bytes32","internalType":"bytes32"},{"name":"subscriptionId","type":"uint256","internalType":"uint256"},{"name":"callbackGasLimit","type":"uint32","internalType":"uint32"}],"stateMutability":"nonpayable"},{"type":"function","name":"acceptOwnership","inputs":[],"outputs":[],"stateMutability":"nonpayable"},{"type":"function","name":"enterRaffle","inputs":[],"outputs":[],"stateMutability":"payable"},{"type":"function","name":"getEntranceFee","inputs":[],"outputs":[{"name":"","type":"uint256","internalType":"uint256"}],"stateMutability":"view"},{"type":"function","name":"owner","inputs":[],"outputs":[{"name":"","type":"address","internalType":"address"}],"stateMutability":"view"},{"type":"function","name":"pickWinner","inputs":[],"outputs":[],"stateMutability":"nonpayable"},{"type":"function","name":"rawFulfillRandomWords","inputs":[{"name":"requestId","type":"uint256","internalType":"uint256"},{"name":"randomWords","type":"uint256[]","internalType":"uint256[]"}],"outputs":[],"stateMutability":"nonpayable"},{"type":"function","name":"s_vrfCoordinator","inputs":[],"outputs":[{"name":"","type":"address","internalType":"contract IVRFCoordinatorV2Plus"}],"stateMutability":"view"},{"type":"function","name":"setCoordinator","inputs":[{"name":"_vrfCoordinator","type":"address","internalType":"address"}],"outputs":[],"stateMutability":"nonpayable"},{"type":"function","name":"transferOwnership","inputs":[{"name":"to","type":"address","internalType":"address"}],"outputs":[],"stateMutability":"nonpayable"},{"type":"event","name":"CoordinatorSet","inputs":[{"name":"vrfCoordinator","type":"address","indexed":false,"internalType":"address"}],"anonymous":false},{"type":"event","name":"OwnershipTransferRequested","inputs":[{"name":"from","type":"address","indexed":true,"internalType":"address"},{"name":"to","type":"address","indexed":true,"internalType":"address"}],"anonymous":false},{"type":"event","name":"OwnershipTransferred","inputs":[{"name":"from","type":"address","indexed":true,"internalType":"address"},{"name":"to","type":"address","indexed":true,"internalType":"address"}],"anonymous":false},{"type":"event","name":"RaffleEnter","inputs":[{"name":"player","type":"address","indexed":true,"internalType":"address"}],"anonymous":false},{"type":"event","name":"WinnerPicked","inputs":[{"name":"winner","type":"address","indexed":true,"internalType":"address"}],"anonymous":false},{"type":"error","name":"OnlyCoordinatorCanFulfill","inputs":[{"name":"have","type":"address","internalType":"address"},{"name":"want","type":"address","internalType":"address"}]},{"type":"error","name":"OnlyOwnerOrCoordinator","inputs":[{"name":"have","type":"address","internalType":"address"},{"name":"owner","type":"address","internalType":"address"},{"name":"coordinator","type":"address","internalType":"address"}]},{"type":"error","name":"Raffle__RaffleNotOpen","inputs":[]},{"type":"error","name":"Raffle__SendMoreToEnterRaffle","inputs":[]},{"type":"error","name":"Raffle__TransferFailed","inputs":[]},{"type":"error","name":"ZeroAddress","inputs":[]}],"bytecode":{"object":"0x610120604052348015610010575f80fd5b50604051611cb5380380611cb583398181016040528101906100329190610467565b8333805f8073ffffffffffffffffffffffffffffffffffffffff168273ffffffffffffffffffffffffffffffffffffffff16036100a4576040517f08c379a000000000000000000000000000000000000000000000000000000000815260040161009b9061054a565b60405180910390fd5b815f806101000a81548173ffffffffffffffffffffffffffffffffffffffff021916908373ffffffffffffffffffffffffffffffffffffffff1602179055505f73ffffffffffffffffffffffffffffffffffffffff168173ffffffffffffffffffffffffffffffffffffffff1614610126576101258161024060201b60201c565b5b5050505f73ffffffffffffffffffffffffffffffffffffffff168173ffffffffffffffffffffffffffffffffffffffff160361018e576040517fd92e233d00000000000000000000000000000000000000000000000000000000815260040160405180910390fd5b8060025f6101000a81548173ffffffffffffffffffffffffffffffffffffffff021916908373ffffffffffffffffffffffffffffffffffffffff1602179055505085608081815250508460a081815250508260c081815250508160e081815250508063ffffffff166101008163ffffffff1681525050426004819055505f600560146101000a81548160ff021916908360018111156102305761022f610568565b5b02179055505050505050506105fd565b3373ffffffffffffffffffffffffffffffffffffffff168173ffffffffffffffffffffffffffffffffffffffff16036102ae576040517f08c379a00000000000000000000000000000000000000000000000000000000081526004016102a5906105df565b60405180910390fd5b8060015f6101000a81548173ffffffffffffffffffffffffffffffffffffffff021916908373ffffffffffffffffffffffffffffffffffffffff1602179055508073ffffffffffffffffffffffffffffffffffffffff165f8054906101000a900473ffffffffffffffffffffffffffffffffffffffff1673ffffffffffffffffffffffffffffffffffffffff167fed8889f560326eb138920d842192f0eb3dd22b4f139c87a2c57538e05bae127860405160405180910390a350565b5f80fd5b5f819050919050565b6103808161036e565b811461038a575f80fd5b50565b5f8151905061039b81610377565b92915050565b5f73ffffffffffffffffffffffffffffffffffffffff82169050919050565b5f6103ca826103a1565b9050919050565b6103da816103c0565b81146103e4575f80fd5b50565b5f815190506103f5816103d1565b92915050565b5f819050919050565b61040d816103fb565b8114610417575f80fd5b50565b5f8151905061042881610404565b92915050565b5f63ffffffff82169050919050565b6104468161042e565b8114610450575f80fd5b50565b5f815190506104618161043d565b92915050565b5f805f805f8060c087890312156104815761048061036a565b5b5f61048e89828a0161038d565b965050602061049f89828a0161038d565b95505060406104b089828a016103e7565b94505060606104c189828a0161041a565b93505060806104d289828a0161038d565b92505060a06104e389828a01610453565b9150509295509295509295565b5f82825260208201905092915050565b7f43616e6e6f7420736574206f776e657220746f207a65726f00000000000000005f82015250565b5f6105346018836104f0565b915061053f82610500565b602082019050919050565b5f6020820190508181035f83015261056181610528565b9050919050565b7f4e487b71000000000000000000000000000000000000000000000000000000005f52602160045260245ffd5b7f43616e6e6f74207472616e7366657220746f2073656c660000000000000000005f82015250565b5f6105c96017836104f0565b91506105d482610595565b602082019050919050565b5f6020820190508181035f8301526105f6816105bd565b9050919050565b60805160a05160c05160e051610100516116746106415f395f6104d401525f6104a301525f61047d01525f61040d01525f81816101b801526102a201526116745ff3fe608060405260043610610085575f3560e01c806379ba50971161005857806379ba5097146100fb5780638da5cb5b146101115780638ea981171461013b5780639eccacf614610163578063f2fde38b1461018d57610085565b806309bc33a7146100895780631fe543e3146100b35780632cfcc539146100db5780635d495aea146100e5575b5f80fd5b348015610094575f80fd5b5061009d6101b5565b6040516100aa9190610ee8565b60405180910390f35b3480156100be575f80fd5b506100d960048036038101906100d49190610f94565b6101dc565b005b6100e36102a0565b005b3480156100f0575f80fd5b506100f961040b565b005b348015610106575f80fd5b5061010f6105ca565b005b34801561011c575f80fd5b50610125610759565b6040516101329190611030565b60405180910390f35b348015610146575f80fd5b50610161600480360381019061015c9190611073565b610780565b005b34801561016e575f80fd5b5061017761095d565b60405161018491906110f9565b60405180910390f35b348015610198575f80fd5b506101b360048036038101906101ae9190611073565b610982565b005b5f7f0000000000000000000000000000000000000000000000000000000000000000905090565b60025f9054906101000a900473ffffffffffffffffffffffffffffffffffffffff1673ffffffffffffffffffffffffffffffffffffffff163373ffffffffffffffffffffffffffffffffffffffff1614610290573360025f9054906101000a900473ffffffffffffffffffffffffffffffffffffffff166040517f1cf993f4000000000000000000000000000000000000000000000000000000008152600401610287929190611112565b60405180910390fd5b61029b838383610996565b505050565b7f00000000000000000000000000000000000000000000000000000000000000003410156102fa576040517f3038c00a00000000000000000000000000000000000000000000000000000000815260040160405180910390fd5b5f600181111561030d5761030c611139565b5b600560149054906101000a900460ff16600181111561032f5761032e611139565b5b14610366576040517fd24a271400000000000000000000000000000000000000000000000000000000815260040160405180910390fd5b600333908060018154018082558091505060019003905f5260205f20015f9091909190916101000a81548173ffffffffffffffffffffffffffffffffffffffff021916908373ffffffffffffffffffffffffffffffffffffffff1602179055503373ffffffffffffffffffffffffffffffffffffffff167f0805e1d667bddb8a95f0f09880cf94f403fb596ce79928d9f29b74203ba284d460405160405180910390a2565b7f00000000000000000000000000000000000000000000000000000000000000006004544261043a9190611193565b1015610444575f80fd5b6001600560146101000a81548160ff0219169083600181111561046a57610469611139565b5b02179055505f6040518060c001604052807f000000000000000000000000000000000000000000000000000000000000000081526020017f00000000000000000000000000000000000000000000000000000000000000008152602001600361ffff1681526020017f000000000000000000000000000000000000000000000000000000000000000063ffffffff168152602001600163ffffffff16815260200161052460405180602001604052805f1515815250610bdd565b81525090505f60025f9054906101000a900473ffffffffffffffffffffffffffffffffffffffff1673ffffffffffffffffffffffffffffffffffffffff16639b1c385e836040518263ffffffff1660e01b8152600401610584919061131d565b6020604051808303815f875af11580156105a0573d5f803e3d5ffd5b505050506040513d601f19601f820116820180604052508101906105c49190611351565b90505050565b60015f9054906101000a900473ffffffffffffffffffffffffffffffffffffffff1673ffffffffffffffffffffffffffffffffffffffff163373ffffffffffffffffffffffffffffffffffffffff1614610659576040517f08c379a0000000000000000000000000000000000000000000000000000000008152600401610650906113d6565b60405180910390fd5b5f805f9054906101000a900473ffffffffffffffffffffffffffffffffffffffff169050335f806101000a81548173ffffffffffffffffffffffffffffffffffffffff021916908373ffffffffffffffffffffffffffffffffffffffff1602179055505f60015f6101000a81548173ffffffffffffffffffffffffffffffffffffffff021916908373ffffffffffffffffffffffffffffffffffffffff1602179055503373ffffffffffffffffffffffffffffffffffffffff168173ffffffffffffffffffffffffffffffffffffffff167f8be0079c531659141344cd1fd0a4f28419497f9722a3daafe3b4186f6b6457e060405160405180910390a350565b5f805f9054906101000a900473ffffffffffffffffffffffffffffffffffffffff16905090565b610788610759565b73ffffffffffffffffffffffffffffffffffffffff163373ffffffffffffffffffffffffffffffffffffffff1614158015610810575060025f9054906101000a900473ffffffffffffffffffffffffffffffffffffffff1673ffffffffffffffffffffffffffffffffffffffff163373ffffffffffffffffffffffffffffffffffffffff1614155b1561087e573361081e610759565b60025f9054906101000a900473ffffffffffffffffffffffffffffffffffffffff166040517f061db9c1000000000000000000000000000000000000000000000000000000008152600401610875939291906113f4565b60405180910390fd5b5f73ffffffffffffffffffffffffffffffffffffffff168173ffffffffffffffffffffffffffffffffffffffff16036108e3576040517fd92e233d00000000000000000000000000000000000000000000000000000000815260040160405180910390fd5b8060025f6101000a81548173ffffffffffffffffffffffffffffffffffffffff021916908373ffffffffffffffffffffffffffffffffffffffff1602179055507fd1a6a14209a385a964d036e404cb5cfb71f4000cdb03c9366292430787261be6816040516109529190611030565b60405180910390a150565b60025f9054906101000a900473ffffffffffffffffffffffffffffffffffffffff1681565b61098a610c75565b61099381610d04565b50565b5f60038054905083835f8181106109b0576109af611429565b5b905060200201356109c19190611483565b90505f600382815481106109d8576109d7611429565b5b905f5260205f20015f9054906101000a900473ffffffffffffffffffffffffffffffffffffffff1690508060055f6101000a81548173ffffffffffffffffffffffffffffffffffffffff021916908373ffffffffffffffffffffffffffffffffffffffff1602179055505f600560146101000a81548160ff02191690836001811115610a6757610a66611139565b5b02179055505f67ffffffffffffffff811115610a8657610a856114b3565b5b604051908082528060200260200182016040528015610ab45781602001602082028036833780820191505090505b5060039080519060200190610aca929190610e2e565b50426004819055505f8173ffffffffffffffffffffffffffffffffffffffff1647604051610af79061150d565b5f6040518083038185875af1925050503d805f8114610b31576040519150601f19603f3d011682016040523d82523d5f602084013e610b36565b606091505b5050905080610b71576040517fa1d04b3900000000000000000000000000000000000000000000000000000000815260040160405180910390fd5b60055f9054906101000a900473ffffffffffffffffffffffffffffffffffffffff1673ffffffffffffffffffffffffffffffffffffffff167f5b690ec4a06fe979403046eaeea5b3ce38524683c3001f662c8b5a829632f7df60405160405180910390a2505050505050565b60607f92fd13387c7fe7befbc38d303d6468778fb9731bc4583f17d92989c6fcfdeaaa82604051602401610c119190611555565b604051602081830303815290604052907bffffffffffffffffffffffffffffffffffffffffffffffffffffffff19166020820180517bffffffffffffffffffffffffffffffffffffffffffffffffffffffff83818316178352505050509050919050565b5f8054906101000a900473ffffffffffffffffffffffffffffffffffffffff1673ffffffffffffffffffffffffffffffffffffffff163373ffffffffffffffffffffffffffffffffffffffff1614610d02576040517f08c379a0000000000000000000000000000000000000000000000000000000008152600401610cf9906115b8565b60405180910390fd5b565b3373ffffffffffffffffffffffffffffffffffffffff168173ffffffffffffffffffffffffffffffffffffffff1603610d72576040517f08c379a0000000000000000000000000000000000000000000000000000000008152600401610d6990611620565b60405180910390fd5b8060015f6101000a81548173ffffffffffffffffffffffffffffffffffffffff021916908373ffffffffffffffffffffffffffffffffffffffff1602179055508073ffffffffffffffffffffffffffffffffffffffff165f8054906101000a900473ffffffffffffffffffffffffffffffffffffffff1673ffffffffffffffffffffffffffffffffffffffff167fed8889f560326eb138920d842192f0eb3dd22b4f139c87a2c57538e05bae127860405160405180910390a350565b828054828255905f5260205f20908101928215610ea4579160200282015b82811115610ea3578251825f6101000a81548173ffffffffffffffffffffffffffffffffffffffff021916908373ffffffffffffffffffffffffffffffffffffffff16021790555091602001919060010190610e4c565b5b509050610eb19190610eb5565b5090565b5b80821115610ecc575f815f905550600101610eb6565b5090565b5f819050919050565b610ee281610ed0565b82525050565b5f602082019050610efb5f830184610ed9565b92915050565b5f80fd5b5f80fd5b610f1281610ed0565b8114610f1c575f80fd5b50565b5f81359050610f2d81610f09565b92915050565b5f80fd5b5f80fd5b5f80fd5b5f8083601f840112610f5457610f53610f33565b5b8235905067ffffffffffffffff811115610f7157610f70610f37565b5b602083019150836020820283011115610f8d57610f8c610f3b565b5b9250929050565b5f805f60408486031215610fab57610faa610f01565b5b5f610fb886828701610f1f565b935050602084013567ffffffffffffffff811115610fd957610fd8610f05565b5b610fe586828701610f3f565b92509250509250925092565b5f73ffffffffffffffffffffffffffffffffffffffff82169050919050565b5f61101a82610ff1565b9050919050565b61102a81611010565b82525050565b5f6020820190506110435f830184611021565b92915050565b61105281611010565b811461105c575f80fd5b50565b5f8135905061106d81611049565b92915050565b5f6020828403121561108857611087610f01565b5b5f6110958482850161105f565b91505092915050565b5f819050919050565b5f6110c16110bc6110b784610ff1565b61109e565b610ff1565b9050919050565b5f6110d2826110a7565b9050919050565b5f6110e3826110c8565b9050919050565b6110f3816110d9565b82525050565b5f60208201905061110c5f8301846110ea565b92915050565b5f6040820190506111255f830185611021565b6111326020830184611021565b9392505050565b7f4e487b71000000000000000000000000000000000000000000000000000000005f52602160045260245ffd5b7f4e487b71000000000000000000000000000000000000000000000000000000005f52601160045260245ffd5b5f61119d82610ed0565b91506111a883610ed0565b92508282039050818111156111c0576111bf611166565b5b92915050565b5f819050919050565b6111d8816111c6565b82525050565b6111e781610ed0565b82525050565b5f61ffff82169050919050565b611203816111ed565b82525050565b5f63ffffffff82169050919050565b61122181611209565b82525050565b5f81519050919050565b5f82825260208201905092915050565b8281835e5f83830152505050565b5f601f19601f8301169050919050565b5f61126982611227565b6112738185611231565b9350611283818560208601611241565b61128c8161124f565b840191505092915050565b5f60c083015f8301516112ac5f8601826111cf565b5060208301516112bf60208601826111de565b5060408301516112d260408601826111fa565b5060608301516112e56060860182611218565b5060808301516112f86080860182611218565b5060a083015184820360a0860152611310828261125f565b9150508091505092915050565b5f6020820190508181035f8301526113358184611297565b905092915050565b5f8151905061134b81610f09565b92915050565b5f6020828403121561136657611365610f01565b5b5f6113738482850161133d565b91505092915050565b5f82825260208201905092915050565b7f4d7573742062652070726f706f736564206f776e6572000000000000000000005f82015250565b5f6113c060168361137c565b91506113cb8261138c565b602082019050919050565b5f6020820190508181035f8301526113ed816113b4565b9050919050565b5f6060820190506114075f830186611021565b6114146020830185611021565b6114216040830184611021565b949350505050565b7f4e487b71000000000000000000000000000000000000000000000000000000005f52603260045260245ffd5b7f4e487b71000000000000000000000000000000000000000000000000000000005f52601260045260245ffd5b5f61148d82610ed0565b915061149883610ed0565b9250826114a8576114a7611456565b5b828206905092915050565b7f4e487b71000000000000000000000000000000000000000000000000000000005f52604160045260245ffd5b5f81905092915050565b50565b5f6114f85f836114e0565b9150611503826114ea565b5f82019050919050565b5f611517826114ed565b9150819050919050565b5f8115159050919050565b61153581611521565b82525050565b602082015f82015161154f5f85018261152c565b50505050565b5f6020820190506115685f83018461153b565b92915050565b7f4f6e6c792063616c6c61626c65206279206f776e6572000000000000000000005f82015250565b5f6115a260168361137c565b91506115ad8261156e565b602082019050919050565b5f6020820190508181035f8301526115cf81611596565b9050919050565b7f43616e6e6f74207472616e7366657220746f2073656c660000000000000000005f82015250565b5f61160a60178361137c565b9150611615826115d6565b602082019050919050565b5f6020820190508181035f830152611637816115fe565b905091905056fea2646970667358221220a4cc854f6949d97846def12b760f99f01a3b69eff17ef485735835d1eeb8171764736f6c634300081a0033","linkReferences":{}},"methodIdentifiers":{"acceptOwnership()":"79ba5097","enterRaffle()":"2cfcc539","getEntranceFee()":"09bc33a7","owner()":"8da5cb5b","pickWinner()":"5d495aea","rawFulfillRandomWords(uint256,uint256[])":"1fe543e3","s_vrfCoordinator()":"9eccacf6","setCoordinator(address)":"8ea98117","transferOwnership(address)":"f2fde38b"},"id":8}