{"abi":[{"type":"constructor","inputs":[{"name":"entranceFee","type":"uint256","internalType":"uint256"},{"name":"interval","type":"uint256","internalType":"uint256"},{"name":"vrfCoordinator","type":"address","internalType":"address"},{"name":"gaslane","type":"bytes32","internalType":"bytes32"},{"name":"subscriptionId","type":"uint256","internalType":"uint256"},{"name":"callbackGasLimit","type":"uint32","internalType":"uint32"}],"stateMutability":"nonpayable"},{"type":"function","name":"acceptOwnership","inputs":[],"outputs":[],"stateMutability":"nonpayable"},{"type":"function","name":"checkUpkeep","inputs":[{"name":"","type":"bytes","internalType":"bytes"}],"outputs":[{"name":"upkeepNeeded","type":"bool","internalType":"bool"},{"name":"","type":"bytes","internalType":"bytes"}],"stateMutability":"view"},{"type":"function","name":"enterRaffle","inputs":[],"outputs":[],"stateMutability":"payable"},{"type":"function","name":"getEntranceFee","inputs":[],"outputs":[{"name":"","type":"uint256","internalType":"uint256"}],"stateMutability":"view"},{"type":"function","name":"owner","inputs":[],"outputs":[{"name":"","type":"address","internalType":"address"}],"stateMutability":"view"},{"type":"function","name":"performUpkeep","inputs":[{"name":"","type":"bytes","internalType":"bytes"}],"outputs":[],"stateMutability":"nonpayable"},{"type":"function","name":"rawFulfillRandomWords","inputs":[{"name":"requestId","type":"uint256","internalType":"uint256"},{"name":"randomWords","type":"uint256[]","internalType":"uint256[]"}],"outputs":[],"stateMutability":"nonpayable"},{"type":"function","name":"s_vrfCoordinator","inputs":[],"outputs":[{"name":"","type":"address","internalType":"contract IVRFCoordinatorV2Plus"}],"stateMutability":"view"},{"type":"function","name":"setCoordinator","inputs":[{"name":"_vrfCoordinator","type":"address","internalType":"address"}],"outputs":[],"stateMutability":"nonpayable"},{"type":"function","name":"transferOwnership","inputs":[{"name":"to","type":"address","internalType":"address"}],"outputs":[],"stateMutability":"nonpayable"},{"type":"event","name":"CoordinatorSet","inputs":[{"name":"vrfCoordinator","type":"address","indexed":false,"internalType":"address"}],"anonymous":false},{"type":"event","name":"OwnershipTransferRequested","inputs":[{"name":"from","type":"address","indexed":true,"internalType":"address"},{"name":"to","type":"address","indexed":true,"internalType":"address"}],"anonymous":false},{"type":"event","name":"OwnershipTransferred","inputs":[{"name":"from","type":"address","indexed":true,"internalType":"address"},{"name":"to","type":"address","indexed":true,"internalType":"address"}],"anonymous":false},{"type":"event","name":"RaffleEnter","inputs":[{"name":"player","type":"address","indexed":true,"internalType":"address"}],"anonymous":false},{"type":"event","name":"WinnerPicked","inputs":[{"name":"winner","type":"address","indexed":true,"internalType":"address"}],"anonymous":false},{"type":"error","name":"OnlyCoordinatorCanFulfill","inputs":[{"name":"have","type":"address","internalType":"address"},{"name":"want","type":"address","internalType":"address"}]},{"type":"error","name":"OnlyOwnerOrCoordinator","inputs":[{"name":"have","type":"address","internalType":"address"},{"name":"owner","type":"address","internalType":"address"},{"name":"coordinator","type":"address","internalType":"address"}]},{"type":"error","name":"Raffle__RaffleNotOpen","inputs":[]},{"type":"error","name":"Raffle__SendMoreToEnterRaffle","inputs":[]},{"type":"error","name":"Raffle__TransferFailed","inputs":[]},{"type":"error","name":"Raffle__UpkeepNotNeeded","inputs":[{"name":"balance","type":"uint256","internalType":"uint256"},{"name":"playersLength","type":"uint256","internalType":"uint256"},{"name":"raffleState","type":"uint256","internalType":"uint256"}]},{"type":"error","name":"ZeroAddress","inputs":[]}],"bytecode":{"object":"0x6101206040523480156200001257600080fd5b50604051620021f3380380620021f38339818101604052810190620000389190620004a7565b83338060008073ffffffffffffffffffffffffffffffffffffffff168273ffffffffffffffffffffffffffffffffffffffff1603620000ae576040517f08c379a0000000000000000000000000000000000000000000000000000000008152600401620000a590620005a4565b60405180910390fd5b816000806101000a81548173ffffffffffffffffffffffffffffffffffffffff021916908373ffffffffffffffffffffffffffffffffffffffff160217905550600073ffffffffffffffffffffffffffffffffffffffff168173ffffffffffffffffffffffffffffffffffffffff1614620001355762000134816200025760201b60201c565b5b505050600073ffffffffffffffffffffffffffffffffffffffff168173ffffffffffffffffffffffffffffffffffffffff16036200019f576040517fd92e233d00000000000000000000000000000000000000000000000000000000815260040160405180910390fd5b80600260006101000a81548173ffffffffffffffffffffffffffffffffffffffff021916908373ffffffffffffffffffffffffffffffffffffffff1602179055505085608081815250508460a081815250508260c081815250508160e081815250508063ffffffff166101008163ffffffff1681525050426004819055506000600560146101000a81548160ff02191690836001811115620002465762000245620005c6565b5b021790555050505050505062000667565b3373ffffffffffffffffffffffffffffffffffffffff168173ffffffffffffffffffffffffffffffffffffffff1603620002c8576040517f08c379a0000000000000000000000000000000000000000000000000000000008152600401620002bf9062000645565b60405180910390fd5b80600160006101000a81548173ffffffffffffffffffffffffffffffffffffffff021916908373ffffffffffffffffffffffffffffffffffffffff1602179055508073ffffffffffffffffffffffffffffffffffffffff1660008054906101000a900473ffffffffffffffffffffffffffffffffffffffff1673ffffffffffffffffffffffffffffffffffffffff167fed8889f560326eb138920d842192f0eb3dd22b4f139c87a2c57538e05bae127860405160405180910390a350565b600080fd5b6000819050919050565b620003a0816200038b565b8114620003ac57600080fd5b50565b600081519050620003c08162000395565b92915050565b600073ffffffffffffffffffffffffffffffffffffffff82169050919050565b6000620003f382620003c6565b9050919050565b6200040581620003e6565b81146200041157600080fd5b50565b6000815190506200042581620003fa565b92915050565b6000819050919050565b62000440816200042b565b81146200044c57600080fd5b50565b600081519050620004608162000435565b92915050565b600063ffffffff82169050919050565b620004818162000466565b81146200048d57600080fd5b50565b600081519050620004a18162000476565b92915050565b60008060008060008060c08789031215620004c757620004c662000386565b5b6000620004d789828a01620003af565b9650506020620004ea89828a01620003af565b9550506040620004fd89828a0162000414565b94505060606200051089828a016200044f565b93505060806200052389828a01620003af565b92505060a06200053689828a0162000490565b9150509295509295509295565b600082825260208201905092915050565b7f43616e6e6f7420736574206f776e657220746f207a65726f0000000000000000600082015250565b60006200058c60188362000543565b9150620005998262000554565b602082019050919050565b60006020820190508181036000830152620005bf816200057d565b9050919050565b7f4e487b7100000000000000000000000000000000000000000000000000000000600052602160045260246000fd5b7f43616e6e6f74207472616e7366657220746f2073656c66000000000000000000600082015250565b60006200062d60178362000543565b91506200063a82620005f5565b602082019050919050565b6000602082019050818103600083015262000660816200061e565b9050919050565b60805160a05160c05160e05161010051611b40620006b36000396000610591015260006105600152600061053a0152600061069401526000818161021e015261030a0152611b406000f3fe6080604052600436106100915760003560e01c806379ba50971161005957806379ba50971461015b5780638da5cb5b146101725780638ea981171461019d5780639eccacf6146101c6578063f2fde38b146101f157610091565b806309bc33a7146100965780631fe543e3146100c15780632cfcc539146100ea5780634585e33b146100f45780636e04ff0d1461011d575b600080fd5b3480156100a257600080fd5b506100ab61021a565b6040516100b89190611090565b60405180910390f35b3480156100cd57600080fd5b506100e860048036038101906100e39190611150565b610242565b005b6100f2610308565b005b34801561010057600080fd5b5061011b60048036038101906101169190611206565b610477565b005b34801561012957600080fd5b50610144600480360381019061013f9190611394565b61068c565b604051610152929190611477565b60405180910390f35b34801561016757600080fd5b5061017061074e565b005b34801561017e57600080fd5b506101876108e3565b60405161019491906114e8565b60405180910390f35b3480156101a957600080fd5b506101c460048036038101906101bf919061152f565b61090c565b005b3480156101d257600080fd5b506101db610aed565b6040516101e891906115bb565b60405180910390f35b3480156101fd57600080fd5b506102186004803603810190610213919061152f565b610b13565b005b60007f0000000000000000000000000000000000000000000000000000000000000000905090565b600260009054906101000a900473ffffffffffffffffffffffffffffffffffffffff1673ffffffffffffffffffffffffffffffffffffffff163373ffffffffffffffffffffffffffffffffffffffff16146102f85733600260009054906101000a900473ffffffffffffffffffffffffffffffffffffffff166040517f1cf993f40000000000000000000000000000000000000000000000000000000081526004016102ef9291906115d6565b60405180910390fd5b610303838383610b27565b505050565b7f0000000000000000000000000000000000000000000000000000000000000000341015610362576040517f3038c00a00000000000000000000000000000000000000000000000000000000815260040160405180910390fd5b60006001811115610376576103756115ff565b5b600560149054906101000a900460ff166001811115610398576103976115ff565b5b146103cf576040517fd24a271400000000000000000000000000000000000000000000000000000000815260040160405180910390fd5b6003339080600181540180825580915050600190039060005260206000200160009091909190916101000a81548173ffffffffffffffffffffffffffffffffffffffff021916908373ffffffffffffffffffffffffffffffffffffffff1602179055503373ffffffffffffffffffffffffffffffffffffffff167f0805e1d667bddb8a95f0f09880cf94f403fb596ce79928d9f29b74203ba284d460405160405180910390a2565b60006104916040518060200160405280600081525061068c565b509050806105005747600380549050600560149054906101000a900460ff1660018111156104c2576104c16115ff565b5b6040517f584327aa0000000000000000000000000000000000000000000000000000000081526004016104f79392919061162e565b60405180910390fd5b6001600560146101000a81548160ff02191690836001811115610526576105256115ff565b5b021790555060006040518060c001604052807f000000000000000000000000000000000000000000000000000000000000000081526020017f00000000000000000000000000000000000000000000000000000000000000008152602001600361ffff1681526020017f000000000000000000000000000000000000000000000000000000000000000063ffffffff168152602001600163ffffffff1681526020016105e2604051806020016040528060001515815250610d7c565b8152509050600260009054906101000a900473ffffffffffffffffffffffffffffffffffffffff1673ffffffffffffffffffffffffffffffffffffffff16639b1c385e826040518263ffffffff1660e01b8152600401610642919061179c565b6020604051808303816000875af1158015610661573d6000803e3d6000fd5b505050506040513d601f19601f8201168201806040525081019061068591906117d3565b5050505050565b6000606060007f0000000000000000000000000000000000000000000000000000000000000000600454426106c1919061182f565b1015905060008060018111156106da576106d96115ff565b5b600560149054906101000a900460ff1660018111156106fc576106fb6115ff565b5b1490506000804711905060008060038054905011905083801561071c5750825b80156107255750815b801561072e5750805b955085604051806020016040528060008152509550955050505050915091565b600160009054906101000a900473ffffffffffffffffffffffffffffffffffffffff1673ffffffffffffffffffffffffffffffffffffffff163373ffffffffffffffffffffffffffffffffffffffff16146107de576040517f08c379a00000000000000000000000000000000000000000000000000000000081526004016107d5906118c0565b60405180910390fd5b60008060009054906101000a900473ffffffffffffffffffffffffffffffffffffffff169050336000806101000a81548173ffffffffffffffffffffffffffffffffffffffff021916908373ffffffffffffffffffffffffffffffffffffffff1602179055506000600160006101000a81548173ffffffffffffffffffffffffffffffffffffffff021916908373ffffffffffffffffffffffffffffffffffffffff1602179055503373ffffffffffffffffffffffffffffffffffffffff168173ffffffffffffffffffffffffffffffffffffffff167f8be0079c531659141344cd1fd0a4f28419497f9722a3daafe3b4186f6b6457e060405160405180910390a350565b60008060009054906101000a900473ffffffffffffffffffffffffffffffffffffffff16905090565b6109146108e3565b73ffffffffffffffffffffffffffffffffffffffff163373ffffffffffffffffffffffffffffffffffffffff161415801561099d5750600260009054906101000a900473ffffffffffffffffffffffffffffffffffffffff1673ffffffffffffffffffffffffffffffffffffffff163373ffffffffffffffffffffffffffffffffffffffff1614155b15610a0c57336109ab6108e3565b600260009054906101000a900473ffffffffffffffffffffffffffffffffffffffff166040517f061db9c1000000000000000000000000000000000000000000000000000000008152600401610a03939291906118e0565b60405180910390fd5b600073ffffffffffffffffffffffffffffffffffffffff168173ffffffffffffffffffffffffffffffffffffffff1603610a72576040517fd92e233d00000000000000000000000000000000000000000000000000000000815260040160405180910390fd5b80600260006101000a81548173ffffffffffffffffffffffffffffffffffffffff021916908373ffffffffffffffffffffffffffffffffffffffff1602179055507fd1a6a14209a385a964d036e404cb5cfb71f4000cdb03c9366292430787261be681604051610ae291906114e8565b60405180910390a150565b600260009054906101000a900473ffffffffffffffffffffffffffffffffffffffff1681565b610b1b610e14565b610b2481610ea4565b50565b600060038054905083836000818110610b4357610b42611917565b5b90506020020135610b549190611975565b9050600060038281548110610b6c57610b6b611917565b5b9060005260206000200160009054906101000a900473ffffffffffffffffffffffffffffffffffffffff16905080600560006101000a81548173ffffffffffffffffffffffffffffffffffffffff021916908373ffffffffffffffffffffffffffffffffffffffff1602179055506000600560146101000a81548160ff02191690836001811115610c0057610bff6115ff565b5b0217905550600067ffffffffffffffff811115610c2057610c1f611269565b5b604051908082528060200260200182016040528015610c4e5781602001602082028036833780820191505090505b5060039080519060200190610c64929190610fd0565b5042600481905550600560009054906101000a900473ffffffffffffffffffffffffffffffffffffffff1673ffffffffffffffffffffffffffffffffffffffff167f5b690ec4a06fe979403046eaeea5b3ce38524683c3001f662c8b5a829632f7df60405160405180910390a260008173ffffffffffffffffffffffffffffffffffffffff1647604051610cf7906119d7565b60006040518083038185875af1925050503d8060008114610d34576040519150601f19603f3d011682016040523d82523d6000602084013e610d39565b606091505b5050905080610d74576040517fa1d04b3900000000000000000000000000000000000000000000000000000000815260040160405180910390fd5b505050505050565b60607f92fd13387c7fe7befbc38d303d6468778fb9731bc4583f17d92989c6fcfdeaaa82604051602401610db09190611a17565b604051602081830303815290604052907bffffffffffffffffffffffffffffffffffffffffffffffffffffffff19166020820180517bffffffffffffffffffffffffffffffffffffffffffffffffffffffff83818316178352505050509050919050565b60008054906101000a900473ffffffffffffffffffffffffffffffffffffffff1673ffffffffffffffffffffffffffffffffffffffff163373ffffffffffffffffffffffffffffffffffffffff1614610ea2576040517f08c379a0000000000000000000000000000000000000000000000000000000008152600401610e9990611a7e565b60405180910390fd5b565b3373ffffffffffffffffffffffffffffffffffffffff168173ffffffffffffffffffffffffffffffffffffffff1603610f12576040517f08c379a0000000000000000000000000000000000000000000000000000000008152600401610f0990611aea565b60405180910390fd5b80600160006101000a81548173ffffffffffffffffffffffffffffffffffffffff021916908373ffffffffffffffffffffffffffffffffffffffff1602179055508073ffffffffffffffffffffffffffffffffffffffff1660008054906101000a900473ffffffffffffffffffffffffffffffffffffffff1673ffffffffffffffffffffffffffffffffffffffff167fed8889f560326eb138920d842192f0eb3dd22b4f139c87a2c57538e05bae127860405160405180910390a350565b828054828255906000526020600020908101928215611049579160200282015b828111156110485782518260006101000a81548173ffffffffffffffffffffffffffffffffffffffff021916908373ffffffffffffffffffffffffffffffffffffffff16021790555091602001919060010190610ff0565b5b509050611056919061105a565b5090565b5b8082111561107357600081600090555060010161105b565b5090565b6000819050919050565b61108a81611077565b82525050565b60006020820190506110a56000830184611081565b92915050565b6000604051905090565b600080fd5b600080fd5b6110c881611077565b81146110d357600080fd5b50565b6000813590506110e5816110bf565b92915050565b600080fd5b600080fd5b600080fd5b60008083601f8401126111105761110f6110eb565b5b8235905067ffffffffffffffff81111561112d5761112c6110f0565b5b602083019150836020820283011115611149576111486110f5565b5b9250929050565b600080600060408486031215611169576111686110b5565b5b6000611177868287016110d6565b935050602084013567ffffffffffffffff811115611198576111976110ba565b5b6111a4868287016110fa565b92509250509250925092565b60008083601f8401126111c6576111c56110eb565b5b8235905067ffffffffffffffff8111156111e3576111e26110f0565b5b6020830191508360018202830111156111ff576111fe6110f5565b5b9250929050565b6000806020838503121561121d5761121c6110b5565b5b600083013567ffffffffffffffff81111561123b5761123a6110ba565b5b611247858286016111b0565b92509250509250929050565b600080fd5b6000601f19601f8301169050919050565b7f4e487b7100000000000000000000000000000000000000000000000000000000600052604160045260246000fd5b6112a182611258565b810181811067ffffffffffffffff821117156112c0576112bf611269565b5b80604052505050565b60006112d36110ab565b90506112df8282611298565b919050565b600067ffffffffffffffff8211156112ff576112fe611269565b5b61130882611258565b9050602081019050919050565b82818337600083830152505050565b6000611337611332846112e4565b6112c9565b90508281526020810184848401111561135357611352611253565b5b61135e848285611315565b509392505050565b600082601f83011261137b5761137a6110eb565b5b813561138b848260208601611324565b91505092915050565b6000602082840312156113aa576113a96110b5565b5b600082013567ffffffffffffffff8111156113c8576113c76110ba565b5b6113d484828501611366565b91505092915050565b60008115159050919050565b6113f2816113dd565b82525050565b600081519050919050565b600082825260208201905092915050565b60005b83811015611432578082015181840152602081019050611417565b60008484015250505050565b6000611449826113f8565b6114538185611403565b9350611463818560208601611414565b61146c81611258565b840191505092915050565b600060408201905061148c60008301856113e9565b818103602083015261149e818461143e565b90509392505050565b600073ffffffffffffffffffffffffffffffffffffffff82169050919050565b60006114d2826114a7565b9050919050565b6114e2816114c7565b82525050565b60006020820190506114fd60008301846114d9565b92915050565b61150c816114c7565b811461151757600080fd5b50565b60008135905061152981611503565b92915050565b600060208284031215611545576115446110b5565b5b60006115538482850161151a565b91505092915050565b6000819050919050565b600061158161157c611577846114a7565b61155c565b6114a7565b9050919050565b600061159382611566565b9050919050565b60006115a582611588565b9050919050565b6115b58161159a565b82525050565b60006020820190506115d060008301846115ac565b92915050565b60006040820190506115eb60008301856114d9565b6115f860208301846114d9565b9392505050565b7f4e487b7100000000000000000000000000000000000000000000000000000000600052602160045260246000fd5b60006060820190506116436000830186611081565b6116506020830185611081565b61165d6040830184611081565b949350505050565b6000819050919050565b61167881611665565b82525050565b61168781611077565b82525050565b600061ffff82169050919050565b6116a48161168d565b82525050565b600063ffffffff82169050919050565b6116c3816116aa565b82525050565b600082825260208201905092915050565b60006116e5826113f8565b6116ef81856116c9565b93506116ff818560208601611414565b61170881611258565b840191505092915050565b600060c08301600083015161172b600086018261166f565b50602083015161173e602086018261167e565b506040830151611751604086018261169b565b50606083015161176460608601826116ba565b50608083015161177760808601826116ba565b5060a083015184820360a086015261178f82826116da565b9150508091505092915050565b600060208201905081810360008301526117b68184611713565b905092915050565b6000815190506117cd816110bf565b92915050565b6000602082840312156117e9576117e86110b5565b5b60006117f7848285016117be565b91505092915050565b7f4e487b7100000000000000000000000000000000000000000000000000000000600052601160045260246000fd5b600061183a82611077565b915061184583611077565b925082820390508181111561185d5761185c611800565b5b92915050565b600082825260208201905092915050565b7f4d7573742062652070726f706f736564206f776e657200000000000000000000600082015250565b60006118aa601683611863565b91506118b582611874565b602082019050919050565b600060208201905081810360008301526118d98161189d565b9050919050565b60006060820190506118f560008301866114d9565b61190260208301856114d9565b61190f60408301846114d9565b949350505050565b7f4e487b7100000000000000000000000000000000000000000000000000000000600052603260045260246000fd5b7f4e487b7100000000000000000000000000000000000000000000000000000000600052601260045260246000fd5b600061198082611077565b915061198b83611077565b92508261199b5761199a611946565b5b828206905092915050565b600081905092915050565b50565b60006119c16000836119a6565b91506119cc826119b1565b600082019050919050565b60006119e2826119b4565b9150819050919050565b6119f5816113dd565b82525050565b602082016000820151611a1160008501826119ec565b50505050565b6000602082019050611a2c60008301846119fb565b92915050565b7f4f6e6c792063616c6c61626c65206279206f776e657200000000000000000000600082015250565b6000611a68601683611863565b9150611a7382611a32565b602082019050919050565b60006020820190508181036000830152611a9781611a5b565b9050919050565b7f43616e6e6f74207472616e7366657220746f2073656c66000000000000000000600082015250565b6000611ad4601783611863565b9150611adf82611a9e565b602082019050919050565b60006020820190508181036000830152611b0381611ac7565b905091905056fea2646970667358221220f0687d68704d7c7b281dcccc76447243e501d4b26f63d1bfcd18693dda957e3564736f6c63430008130033","linkReferences":{}},"methodIdentifiers":{"acceptOwnership()":"79ba5097","checkUpkeep(bytes)":"6e04ff0d","enterRaffle()":"2cfcc539","getEntranceFee()":"09bc33a7","owner()":"8da5cb5b","performUpkeep(bytes)":"4585e33b","rawFulfillRandomWords(uint256,uint256[])":"1fe543e3","s_vrfCoordinator()":"9eccacf6","setCoordinator(address)":"8ea98117","transferOwnership(address)":"f2fde38b"},"id":30}